:100000000C942A000C943F000C943F000C943F0089
:100010000C943F000C943F000C943F000C943F0064
:100020000C943F000C943F000C943F000C943F0054
:100030000C943F000C943F000C943F000C943F0044
:100040000C943F000C943F000C943F000C943F0034
:100050000C943F0011241FBECFE5D8E0DEBFCDBF1A
:1000600010E0A0E6B0E0E0E2FDE002C005900D92F5
:10007000AC37B107D9F70E94B2030C948E060C94EA
:100080000000DF93CF93CDB7DEB7EAE3F0E08FEF68
:100090008083E7E3F0E08FEF8083E4E3F0E0108219
:1000A000E1E3F0E081E08083CF91DF910895DF9379
:1000B000CF93CDB7DEB72B970FB6F894DEBF0FBE48
:1000C000CDBF8A836B8319828A818830D8F58B8172
:1000D000282F30E03B872A878A859B85009731F05F
:1000E0002A853B8521303105B1F029C0ABE3B0E072
:1000F000EBE3F0E08081482F8A81282F30E081E017
:1001000090E0022E02C0880F991F0A94E2F78095B2
:1001100084238C93F4C0ABE3B0E0EBE3F0E08081A8
:10012000482F8A81282F30E081E090E0022E02C023
:10013000880F991F0A94E2F7842B8C93E0C081E02A
:100140008983DDC08A81883008F445C08A81803186
:1001500008F041C08B81282F30E0398728878885B7
:100160009985009731F02885398521303105C9F00E
:100170002FC0A8E3B0E0E8E3F0E08081482F8A8157
:10018000882F90E09C012770307081E090E0022E73
:1001900002C0880F991F0A94E2F7809584238C93FC
:1001A000AEC0A8E3B0E0E8E3F0E08081482F8A81A8
:1001B000882F90E09C012770307081E090E0022E43
:1001C00002C0880F991F0A94E2F7842B8C9397C082
:1001D00081E0898394C08A81803108F445C08A8196
:1001E000883108F041C08B81282F30E03F832E8377
:1001F0008E819F81009731F02E813F812130310522
:10020000C9F02FC0A5E3B0E0E5E3F0E08081482F1E
:100210008A81882F90E09C012770307081E090E007
:10022000022E02C0880F991F0A94E2F7809584235A
:100230008C9365C0A5E3B0E0E5E3F0E08081482F52
:100240008A81882F90E09C012770307081E090E0D7
:10025000022E02C0880F991F0A94E2F7842B8C9318
:100260004EC081E089834BC08A81883108F445C043
:100270008A81803208F041C08B81282F30E03D8395
:100280002C838C819D81009731F02C813D81213020
:100290003105C9F02FC0A2E3B0E0E2E3F0E08081D5
:1002A000482F8A81882F90E09C012770307081E070
:1002B00090E0022E02C0880F991F0A94E2F7809501
:1002C00084238C931CC0A2E3B0E0E2E3F0E08081E1
:1002D000482F8A81882F90E09C012770307081E040
:1002E00090E0022E02C0880F991F0A94E2F7842B37
:1002F0008C9305C081E0898302C081E08983898174
:100300002B960FB6F894DEBF0FBECDBFCF91DF9115
:100310000895DF93CF9300D000D0CDB7DEB78A83A6
:100320007C836B8319828B819C81009709F46EC05A
:100330008A818830A0F4E9E3F0E08081282F30E062
:100340008A81882F90E0A90102C0559547958A952A
:10035000E2F7CA018170EB81FC81808359C08A81F8
:100360008830C8F08A818031B0F4E6E3F0E0808123
:10037000282F30E08A81882F90E087709070A90143
:1003800002C0559547958A95E2F7CA018170EB81C5
:10039000FC8180833DC08A818031C8F08A818831A8
:1003A000B0F4E3E3F0E08081282F30E08A81882FE9
:1003B00090E087709070A90102C0559547958A9585
:1003C000E2F7CA018170EB81FC81808321C08A81C0
:1003D0008831C8F08A818032B0F4E0E3F0E08081B7
:1003E000282F30E08A81882F90E087709070A901D3
:1003F00002C0559547958A95E2F7CA018170EB8155
:10040000FC81808305C081E0898302C082E089830A
:1004100089810F900F900F900F90CF91DF910895E9
:10042000DF93CF9300D0CDB7DEB789836A8389810C
:100430006A810E9457000F900F90CF91DF9108952D
:10044000DF93CF93CDB7DEB727970FB6F894DEBF13
:100450000FBECDBF9C838B837E836D834F831A82B7
:1004600019821DC08981282F30E08B819C81FC017D
:10047000E20FF31F40818981282F30E08D819E811A
:10048000FC01E20FF31F9081842F692F0E94570017
:100490008A838A81882339F489818F5F898399814E
:1004A0008F819817F8F28A8127960FB6F894DEBFED
:1004B0000FBECDBFCF91DF910895DF93CF93CDB71E
:1004C000DEB762970FB6F894DEBF0FBECDBF8C8744
:1004D0006D871982CE0102969F878E87E2E7F0E052
:1004E000F98BE88BFAE0FA8BE889F9890080888932
:1004F00099890196998B888BEE85FF8500828E8580
:100500009F8501969F878E879A8991509A8BEA8959
:10051000EE2351F78C85833098F58D858A3090F5E0
:100520008C85282F30E0C901880F991F880F991FEB
:10053000880F991F820F931FFC01E859FF4F80819C
:10054000882371F48D85282F30E0CE010296FC01BE
:10055000E20FF31F90818C85692F0E94CC0212C09C
:100560008D85282F30E0CE010296FC01E20FF31FAB
:100570008081982F90958C85692F0E94CC0202C0B3
:1005800081E08983898162960FB6F894DEBF0FBE41
:10059000CDBFCF91DF910895DF93CF93CDB7DEB775
:1005A0002A970FB6F894DEBF0FBECDBF89876A8742
:1005B00019821BC08981482F50E08A85282F30E09E
:1005C0008981882F90E0B90102C0759567958A9559
:1005D000E2F7CB01282F2170CE010296FC01E40F37
:1005E000F51F208389818F5F89838981873010F38C
:1005F0008985282F30E0C901880F991F880F991F1E
:10060000880F991F820F931F805A9F4F9E012E5F64
:100610003F4FB90147E00E9420022A960FB6F89496
:10062000DEBF0FBECDBFCF91DF910895DF93CF9393
:1006300000D0CDB7DEB78A8319828A818330E0F596
:100640008A81282F30E0C901880F991F880F991FD0
:10065000880F991F820F931FFC01E859FF4F80817B
:100660008823A9F48A81282F30E0C901880F991FB7
:10067000880F991F880F991F820F931FFC01E9595A
:10068000FF4F808160E00E945700898317C08A81F4
:10069000282F30E0C901880F991F880F991F880FF4
:1006A000991F820F931FFC01E959FF4F808161E080
:1006B0000E945700898302C081E0898389810F905D
:1006C0000F90CF91DF910895DF93CF9300D0CDB7F6
:1006D000DEB78A8319828A818330E0F58A81282FE8
:1006E00030E0C901880F991F880F991F880F991F43
:1006F000820F931FFC01E859FF4F80818823A9F4E2
:100700008A81282F30E0C901880F991F880F991F0F
:10071000880F991F820F931FFC01E959FF4F8081B9
:1007200061E00E945700898317C08A81282F30E03A
:10073000C901880F991F880F991F880F991F820F71
:10074000931FFC01E959FF4F808160E00E94570030
:10075000898302C081E0898389810F900F90CF91B6
:10076000DF910895DF93CF93CDB7DEB7C055D0406A
:100770000FB6F894DEBF0FBECDBF0E94410080E0EF
:100780000E94160381E00E94160380E060E00E9450
:100790005D0281E060E00E945D02FE01E35BFF4FCD
:1007A00089E090E0A0E0B0E080839183A283B383EE
:1007B0003CC0FE01E75BFF4F80ED97E0A0E0B0E0BA
:1007C00080839183A283B38313C000009E01275BC3
:1007D0003F4FFE01E75BFF4F80819181A281B38192
:1007E0000197A109B109F90180839183A283B383A1
:1007F000FE01E75BFF4F80819181A281B381009769
:10080000A105B10511F79E01235B3F4FFE01E35B9C
:10081000FF4F80819181A281B3810197A109B10924
:10082000F90180839183A283B383FE01E35BFF4FD1
:1008300080819181A281B3810097A105B10509F062
:10084000B8CF80E061E00E945D0281E061E00E943B
:100850005D02FE01EB5BFF4F89E090E0A0E0B0E0BD
:1008600080839183A283B3833CC0FE01EF5BFF4F83
:1008700080ED97E0A0E0B0E080839183A283B38312
:1008800013C000009E012F5B3F4FFE01EF5BFF4F47
:1008900080819181A281B3810197A109B109F901F8
:1008A00080839183A283B383FE01EF5BFF4F80813E
:1008B0009181A281B3810097A105B10511F79E0135
:1008C0002B5B3F4FFE01EB5BFF4F80819181A2814B
:1008D000B3810197A109B109F90180839183A283B2
:1008E000B383FE01EB5BFF4F80819181A281B381D5
:1008F0000097A105B10509F0B8CF80E062E00E9441
:100900005D0281E062E00E945D0289E090E0A0E08B
:10091000B0E0FE01FD9680839183A283B3832CC057
:1009200080ED97E0A0E0B0E089AF9AAFABAFBCAF8D
:100930000CC0000089AD9AADABADBCAD0197A1096B
:10094000B10989AF9AAFABAFBCAF89AD9AADABADD2
:10095000BCAD0097A105B10561F7FE01FD96808150
:100960009181A281B3810197A109B109FE01FD9690
:1009700080839183A283B383FE01FD968081918160
:10098000A281B3810097A105B10551F680E063E033
:100990000E945D0281E063E00E945D0289E090E0D8
:1009A000A0E0B0E08DAB9EABAFABB8AF28C080EDA0
:1009B00097E0A0E0B0E089AB9AABABABBCAB0CC0AE
:1009C000000089A99AA9ABA9BCA90197A109B109FD
:1009D00089AB9AABABABBCAB89A99AA9ABA9BCA9B3
:1009E0000097A105B10561F78DA99EA9AFA9B8AD82
:1009F0000197A109B1098DAB9EABAFABB8AF8DA983
:100A00009EA9AFA9B8AD0097A105B10581F680E018
:100A100064E00E945D0281E064E00E945D0289E082
:100A200090E0A0E0B0E08DA79EA7AFA7B8AB28C02C
:100A300080ED97E0A0E0B0E089A79AA7ABA7BCA79C
:100A40000CC0000089A59AA5ABA5BCA50197A1097A
:100A5000B10989A79AA7ABA7BCA789A59AA5ABA5F9
:100A6000BCA50097A105B10561F78DA59EA5AFA511
:100A7000B8A90197A109B1098DA79EA7AFA7B8ABE7
:100A80008DA59EA5AFA5B8A90097A105B10581F6D2
:100A900080E065E00E945D0281E065E00E945D0209
:100AA00089E090E0A0E0B0E08DA39EA3AFA3B8A73B
:100AB00028C080ED97E0A0E0B0E089A39AA3ABA3A3
:100AC000BCA30CC0000089A19AA1ABA1BCA1019755
:100AD000A109B10989A39AA3ABA3BCA389A19AA137
:100AE000ABA1BCA10097A105B10561F78DA19EA1A5
:100AF000AFA1B8A50197A109B1098DA39EA3AFA38A
:100B0000B8A78DA19EA1AFA1B8A50097A105B10579
:100B100081F680E066E00E945D0281E066E00E946E
:100B20005D0289E090E0A0E0B0E08D8F9E8FAF8FF6
:100B3000B8A328C080ED97E0A0E0B0E0898F9A8F3D
:100B4000AB8FBC8F0CC00000898D9A8DAB8DBC8D96
:100B50000197A109B109898F9A8FAB8FBC8F898DBD
:100B60009A8DAB8DBC8D0097A105B10561F78D8D78
:100B70009E8DAF8DB8A10197A109B1098D8F9E8F70
:100B8000AF8FB8A38D8D9E8DAF8DB8A10097A105B5
:100B9000B10581F680E067E00E945D0281E067E0D8
:100BA0000E945D0289E090E0A0E0B0E08D8B9E8B1A
:100BB000AF8BB88F28C080ED97E0A0E0B0E0898BC4
:100BC0009A8BAB8BBC8B0CC0000089899A89AB894E
:100BD000BC890197A109B109898B9A8BAB8BBC8B1E
:100BE00089899A89AB89BC890097A105B10561F70C
:100BF0008D899E89AF89B88D0197A109B1098D8B27
:100C00009E8BAF8BB88F8D899E89AF89B88D0097E9
:100C1000A105B10581F680E068E00E945D0281E0F7
:100C200068E00E945D0289E090E0A0E0B0E08D877E
:100C30009E87AF87B88B28C080ED97E0A0E0B0E03A
:100C400089879A87AB87BC870CC0000089859A8505
:100C5000AB85BC850197A109B10989879A87AB87C4
:100C6000BC8789859A85AB85BC850097A105B105B0
:100C700061F78D859E85AF85B8890197A109B10976
:100C80008D879E87AF87B88B8D859E85AF85B88908
:100C90000097A105B10581F680E069E00E945D0240
:100CA00081E069E00E945D0289E090E0A0E0B0E0B0
:100CB0008D839E83AF83B88728C080ED97E0A0E046
:100CC000B0E089839A83AB83BC830CC00000898128
:100CD0009A81AB81BC810197A109B10989839A836B
:100CE000AB83BC8389819A81AB81BC810097A105CC
:100CF000B10561F78D819E81AF81B8850197A1090A
:100D0000B1098D839E83AF83B8878D819E81AF812A
:100D1000B8850097A105B10581F637CDF894FFCFCE
:100D200000010203040506070008090A0B0C0D0E5A
:0C0D30000F013F065B4F666D7D077F6F73
:00000001FF
