:100000000C942A000C94A7140C94D4140C9401158D
:100010000C9447000C9447000C9447000C94470044
:100020000C9447000C9447000C9447000C94470034
:100030000C9447000C9447000C9447000C94470024
:100040000C94BB180C9447000C9447000C94470088
:100050000C94470011241FBECFE5D8E0DEBFCDBF12
:1000600011E0A0E6B0E0EAECF5E602C005900D92E2
:10007000A43FB107D9F711E0A4EFB1E001C01D9290
:10008000AE3FB107E1F70E94DA310C94E3320C94F1
:100090000000EF92FF920F93DF93CF93CDB7DEB7BF
:1000A00060970FB6F894DEBF0FBECDBFA82F002318
:1000B00009F461C07E010894E11CF11C88E0F7019D
:1000C00011928A95E9F729833A834B835C836D8388
:1000D0007E83AF83988780E2801BE82FFF27E7FDB0
:1000E000F09549815A816B817C81181684F01986BC
:1000F0001A861B861C86882799278E1B9F0B04C097
:10010000440F551F661F771F8A95D2F728C0202FEE
:10011000332727FD3095DB01CA01022E04C0880F6A
:10012000991FAA1FBB1F0A94D2F789879A87AB87AA
:10013000BC8704C07695679557954795EA95D2F7A1
:100140008D819E81AF81B88504C0880F991FAA1F39
:10015000BB1F2A95D2F7482B592B6A2B7B2B4D8737
:100160005E876F87788B29853A854B855C856D85A1
:100170007E85AF8598898A2F60960FB6F894DEBF8A
:100180000FBECDBFCF91DF910F91FF90EF900895FB
:10019000EF92FF920F931F937B018C0120E030E0E0
:1001A00040E05FE40E94AD1088238CF0C801B701E5
:1001B00020E030E040E05FE40E94250F0E940D1136
:1001C0009B01AC01205030404040504806C0C8015F
:1001D000B7010E940D119B01AC01B901CA011F9129
:1001E0000F91FF90EF900895AEE5B0E0EAEFF0E0F8
:1001F0000C94AC32A8E04E010894811C911CF401CF
:100200006A2E11926A94E9F729833A834B835C83BF
:100210006D837E838F839887CE010996FC011192AE
:10022000AA95E9F7A986BA86CB86DC86ED86FE8696
:100230000F87188B29843A844B845C84ED84FE8478
:100240000F85188969807A808B809C806DA67EA638
:100250008FA698AA6D807E808F809884E114F10427
:100260000105110509F0B3C36214730484049504F5
:1002700008F03DC100E0201600E0300601E0400635
:1002800000E0500688F41FEF2116310441045104A8
:1002900039F030F048E0E42EF12C012D112D18C07A
:1002A000EE24FF24870114C020E0221620E032064D
:1002B00020E0420621E0520630F038E1E32EF12C36
:1002C000012D112D05C020E1E22EF12C012D112D63
:1002D000D201C1010E2C04C0B695A79597958795BC
:1002E0000A94D2F788599F4FDC012C9180E290E06C
:1002F000A0E0B0E08E199F09A00BB10B7C018D012D
:10030000E21AF10801091109E114F10401051105CE
:10031000A1F10E2C04C0220C331C441C551C0A9461
:10032000D2F7A40193010E2C04C0220F331F441FE7
:10033000551F0A94D2F780E290E08E199F096DA4B0
:100340007EA48FA498A804C0969487947794679409
:100350008A95D2F7622A732A842A952AADA4BEA46C
:10036000CFA4D8A804C0AA0CBB1CCC1CDD1CEA94EA
:10037000D2F7ADA6BEA6CFA6D8AA6201EE24FF246E
:10038000CDAADEAAEFAAF8AE9201810120703070EA
:1003900009AF1AAF2BAF3CAFC401B301A70196015F
:1003A0000E948A327B018C01C401B3012DA93EA9B0
:1003B0004FA958AD0E948A32C901DA013C014D01B2
:1003C000C401B30129AD3AAD4BAD5CAD0E946B32B7
:1003D0009B01AC018701FF24EE24ADA4BEA4CFA4F1
:1003E000D8A8C601AA27BB2757016801A82AB92A9D
:1003F000CA2ADB2AA216B306C406D506E0F408947E
:100400006108710881089108A20CB31CC41CD51C9A
:10041000A214B304C404D50470F0A216B306C40633
:10042000D50648F408946108710881089108A20C67
:10043000B31CC41CD51CA21AB30AC40AD50AC6012F
:10044000B5012DA93EA94FA958AD0E948A327B0162
:100450008C01C601B5012DA93EA94FA958AD0E9436
:100460008A32C901DA015C016D01C601B50129AD0D
:100470003AAD4BAD5CAD0E946B329B01AC01870184
:10048000FF24EE248DA59EA5AFA5B8A9A070B070DD
:10049000E82AF92A0A2B1B2BE216F3060407150794
:1004A000C0F40894A108B108C108D108E20CF31CFB
:1004B000041D151DE214F3040405150550F0E216A1
:1004C000F3060407150728F40894A108B108C10829
:1004D000D108D3019927882786017501E82AF92ACE
:1004E0000A2B1B2BE9AAFAAA0BAB1CABCFC4211415
:1004F00031044104510471F461E070E080E090E067
:1005000020E030E040E050E00E948A32C901DA0188
:100510001C012D0100E0201600E0300601E040063D
:1005200000E0500688F41FEF211631044104510405
:1005300031F028F048E050E060E070E017C040E0A3
:1005400050E060E070E012C020E0221620E03206A9
:1005500020E0420621E0520628F048E150E060E049
:1005600070E004C040E150E060E070E0D201C10101
:10057000042E04C0B695A795979587950A94D2F74F
:1005800088599F4FDC012C91E0E2EE2EF12C012DD9
:10059000112DD801C701841B950BA60BB70B821B2D
:1005A0009109A109B1090097A105B10561F46401A0
:1005B0005301A218B308C408D50831E0632E712C8A
:1005C000812C912C1EC16F968FAF6F97082E04C09F
:1005D000220C331C441C551C0A94D2F7EE2DE81B48
:1005E000640153010E2E04C0D694C794B794A79407
:1005F0000A94D2F7A40193016F960FAC6F9704C0D1
:10060000220F331F441F551F0A94D2F76DA47EA4F6
:100610008FA498A80E2E04C096948794779467941C
:100620000A94D2F784017301E22AF32A042B152BD2
:10063000E9A6FAA60BA71CA73201882499249201E7
:1006400081012070307021960CAF1DAF2EAF3FAFEF
:100650002197C601B501A40193010E948A327B0152
:100660008C01C601B501A40193010E948A32C9011F
:10067000DA0125968CAF9DAFAEAFBFAF2597BC0119
:10068000CD0121962CAD3DAD4EAD5FAD21970E94C1
:100690006B329B01AC018701FF24EE24A9A4BAA40C
:1006A000CBA4DCA4C601AA27BB275C016D01AE2840
:1006B000BF28C02AD12AA216B306C406D50660F503
:1006C00025966CAD7DAD8EAD9FAD25976150704088
:1006D0008040904025966CAF7DAF8EAF9FAF259741
:1006E000A20CB31CC41CD51CA214B304C404D504AE
:1006F00098F0A216B306C406D50670F46150704097
:100700008040904025966CAF7DAF8EAF9FAF259710
:10071000A20CB31CC41CD51CA21AB30AC40AD50A65
:10072000C601B501A40193010E948A327B018C01AC
:10073000C601B501A40193010E948A32C901DA0100
:100740003C014D01C401B30121962CAD3DAD4EAD30
:100750005FAD21970E946B329B01AC018701FF24A2
:10076000EE2489A59AA5ABA5BCA5A070B0705701D1
:100770006801A82AB92ACA2ADB2AA216B306C40627
:10078000D506E0F408946108710881089108A20C6C
:10079000B31CC41CD51CA214B304C404D50470F04B
:1007A000A216B306C406D50648F408946108710879
:1007B00081089108A20CB31CC41CD51C8DA59EA554
:1007C000AFA5B8A96F960FAC6F9704C0880F991F9B
:1007D000AA1FBB1F0A94D2F78DA79EA7AFA7B8ABDD
:1007E000A21AB30AC40AD50A2596ECACFDAC0EAD2C
:1007F0001FAD2597D70199278827682A792A8A2A41
:100800009B2A82012227332729960CAF1DAF2EAFDA
:100810003FAF2997A2019101407050702D962CAFE7
:100820003DAF4EAF5FAF2D97C601B50129962CADF8
:100830003DAD4EAD5FAD29970E948A327B018C01A0
:10084000C601B50129962CAD3DAD4EAD5FAD2997E2
:100850000E948A32C901DA0161968CAF9DAFAEAFBA
:10086000BFAF6197BC01CD012D962CAD3DAD4EAD16
:100870005FAD2D970E946B329B01AC018701FF2475
:10088000EE24ADA4BEA4CFA4D8A8C601AA27BB2736
:1008900057016801A82AB92ACA2ADB2AA216B30678
:1008A000C406D50660F561966CAD7DAD8EAD9FAD8D
:1008B0006197615070408040904061966CAF7DAF11
:1008C0008EAF9FAF6197A20CB31CC41CD51CA214A1
:1008D000B304C404D50498F0A216B306C406D50622
:1008E00070F4615070408040904061966CAF7DAF75
:1008F0008EAF9FAF6197A20CB31CC41CD51CA21A6B
:10090000B30AC40AD50AC601B50129962CAD3DAD7E
:100910004EAD5FAD29970E948A327B018C01C601E2
:10092000B50129962CAD3DAD4EAD5FAD29970E9426
:100930008A32C901DA015C016D01C601B5012D964B
:100940002CAD3DAD4EAD5FAD2D970E946B329B013E
:10095000AC018701FF24EE248DA59EA5AFA5B8A903
:10096000A070B070E82AF92A0A2B1B2BE216F306B6
:1009700004071507C0F40894A108B108C108D108FC
:10098000E20CF31C041D151DE214F3040405150507
:1009900050F0E216F3060407150728F40894A1089E
:1009A000B108C108D1086196ECACFDAC0EAD1FAD2D
:1009B0006197D7019927882796018501082B192B64
:1009C0002A2B3B2B09AB1AAB2BAB3CAB62C26E1490
:1009D0007F048006910608F451C220E0E21620E070
:1009E000F20621E0020720E0120788F43FEFE31649
:1009F000F1040105110531F028F048E050E060E015
:100A000070E017C040E050E060E070E012C040E0ED
:100A1000E41640E0F40640E0040741E0140728F043
:100A200048E150E060E070E004C040E150E060E088
:100A300070E0D801C701042E04C0B695A79597951C
:100A400087950A94D2F788599F4FDC012C9130E2A8
:100A5000A32EB12CC12CD12CD601C501841B950B22
:100A6000A60BB70B821B9109A109B1090097A1053B
:100A7000B10589F4E614F7040805190508F4F2C174
:100A80006DA47EA48FA498A86214730484049504B2
:100A900008F0E8C1F3C16E968FAF6E97082E04C0C0
:100AA000EE0CFF1C001F111F0A94D2F76A2D681B61
:100AB000D201C101062E04C0B695A79597958795DA
:100AC0000A94D2F75C016D01AE28BF28C02AD12A52
:100AD000ADA2BEA2CFA2D8A6720161016E960FACE4
:100AE0006E9704C0CC0CDD1CEE1CFF1C0A94D2F7E0
:100AF000C9A2DAA2EBA2FCA264015301062E04C033
:100B0000D694C794B794A7940A94D2F7D401C3019A
:100B10006E960FAC6E9704C0880F991FAA1FBB1F5B
:100B20000A94D2F7EDA4FEA40FA518A904C0169547
:100B30000795F794E7946A95D2F737014801682A38
:100B4000792A8A2A9B2A6D8E7E8E8F8E98A2EDA09E
:100B5000FEA00FA118A538018824992498018701C7
:100B60002070307065960CAF1DAF2EAF3FAF65970C
:100B7000C601B501A40193010E948A327B018C0158
:100B8000C601B501A40193010E948A32C901DA01AC
:100B90001C012D01C201B10165962CAD3DAD4EADDC
:100BA0005FAD65970E946B329B01AC018701FF240A
:100BB000EE24AD8CBE8CCF8CD8A0C601AA27BB2753
:100BC00057016801A82AB92ACA2ADB2AA216B30645
:100BD000C406D50600F508942108310841085108DB
:100BE000EDA0FEA00FA118A5AE0CBF1CC01ED11E0B
:100BF000AE14BF04C006D10670F0A216B306C40638
:100C0000D50648F408942108310841085108AE0C73
:100C1000BF1CC01ED11EA21AB30AC40AD50AC6013F
:100C2000B501A40193010E948A327B018C01C601A7
:100C3000B501A40193010E948A32C901DA013C0185
:100C40004D01C401B30165962CAD3DAD4EAD5FAD18
:100C500065970E946B329B01AC018701FF24EE2453
:100C60008D8D9E8DAF8DB8A1A070B07057016801B9
:100C7000A82AB92ACA2ADB2AA216B306C406D506B0
:100C800000F5089461087108810891086DA17EA1A2
:100C90008FA198A5A60EB71EC81ED91EA616B70608
:100CA000C806D90670F0A216B306C406D50648F4E5
:100CB00008946108710881089108A60EB71EC81E25
:100CC000D91ED601C501821B930BA40BB50B898FCE
:100CD0009A8FAB8FBC8FD10199278827640153016C
:100CE000A82AB92ACA2ADB2AA9AABAAACBAADCAAA4
:100CF000860175012FEF3FEF40E050E0E222F32242
:100D000004231523A601662777276D964CAF5DAFA8
:100D10006EAF7FAF6D97A9A0BAA0CBA0DCA06FEF9C
:100D20007FEF80E090E0A622B722C822D92289A1D5
:100D30009AA1ABA1BCA11D0144245524C801B7014F
:100D4000A60195010E946B3269966CAF7DAF8EAFA4
:100D50009FAF6997C801B701A20191010E946B3250
:100D60003B014C016D966CAD7DAD8EAD9FAD6D9729
:100D7000A60195010E946B327B018C016D966CADD2
:100D80007DAD8EAD9FAD6D97A20191010E946B323A
:100D90005B016C01A8019701260D371D481D591DE7
:100DA00069966CAC7DAC8EAC9FAC6997C401AA27E8
:100DB000BB27280F391F4A1F5B1F2E153F05400711
:100DC000510748F4E12CF12C61E0062F112DAE0CF7
:100DD000BF1CC01ED11ECA01AA27BB27BC01CD0162
:100DE0006A0D7B1D8C1D9D1D698C7A8C8B8C9C8C57
:100DF000661677068806990640F166157705880518
:100E0000990509F043C0D9019927882769962CAD27
:100E10003DAD4EAD5FAD699740705070820F931F2E
:100E2000A41FB51F2DA53EA54FA558A96E960FACC2
:100E30006E9704C0220F331F441F551F0A94D2F728
:100E4000281739074A075B0708F509A91AA92BA92A
:100E50003CA9015010402040304009AB1AAB2BABED
:100E60003CAB14C066247724430121E030E040E02D
:100E700050E029AB3AAB4BAB5CAB0BC0662477249C
:100E8000430119AA1AAA1BAA1CAA03C06624772424
:100E90004301FE01719688E0DF011D928A95E9F712
:100EA000A9A8BAA8CBA8DCA8A98ABA8ACB8ADC8A66
:100EB0006D8A7E8A8F8A988E29A93A894B895C89A6
:100EC000662D7E898F89988DC25ADF4FE2E10C949E
:100ED000C832ABE5B0E0EFE6F7E00C94AC32A8E046
:100EE0004E010894811C911CF4016A2E11926A949F
:100EF000E9F729833A834B835C836D837E838F83F9
:100F00009887CE010996FC011192AA95E9F7A98666
:100F1000BA86CB86DC86ED86FE860F87188B298401
:100F20003A844B845C84AD84BE84CF84D888298184
:100F30003A814B815C8169962FAF69976A963FAF82
:100F40006A976B964FAF6B976C965FAF6C976C968A
:100F50006CAC7DAC8EAC9FAC6C9769AA7AAA8BAA5C
:100F60009CAA6D817E818F8198853B014C016DAA81
:100F70007EAA8FAA98AEA114B104C104D10409F0CD
:100F800004C3621473048404950408F000C100E0F3
:100F9000201600E0300601E0400600E0500688F42C
:100FA0001FEF211631044104510439F030F088E07C
:100FB000E82EF12C012D112D18C0EE24FF248701FD
:100FC00014C040E0241640E0340640E0440641E00E
:100FD000540630F0B8E1EB2EF12C012D112D05C097
:100FE000A0E1EA2EF12C012D112DD201C1010E2C10
:100FF00004C0B695A795979587950A94D2F7885916
:101000009F4FDC012C9180E290E0A0E0B0E08E19CF
:101010009F09A00BB10B5C016D01A21AB108C108B8
:10102000D108A9AEBAAECBAEDCAEA114B104C104F6
:10103000D10409F43FC069AD062E04C0220C331C54
:10104000441C551C0A94D2F7A4019301062E04C037
:10105000220F331F441F551F0A94D2F780E290E0FD
:101060008A199B096C96CCACDDACEEACFFAC6C97EE
:1010700004C0F694E794D794C7948A95D2F7870171
:101080007601E22AF32A042B152BEDAAFEAA0FAB58
:1010900018AF6C968CAD9DADAEADBFAD6C9704C076
:1010A000880F991FAA1FBB1F6A95D2F789AB9AAB0D
:1010B000ABABBCAB320188249924B201A1016070B2
:1010C000707021964CAF5DAF6EAF7FAF21976DA969
:1010D0007EA98FA998ADA40193010E948A327B0159
:1010E0008C016DA97EA98FA998ADA40193010E94DE
:1010F0008A32CA01B90121962CAD3DAD4EAD5FAD2E
:1011000021970E946B329B01AC018701FF24EE24E2
:10111000A9A8BAA8CBA8DCA8C601AA27BB27570153
:101120006801A82AB92ACA2ADB2AA216B306C4066D
:10113000D50690F4A20CB31CC41CD51CA214B30495
:10114000C404D50448F0A216B306C406D50620F49C
:10115000A20CB31CC41CD51CA21AB30AC40AD50A1B
:10116000C601B501A40193010E948A327B018C0162
:10117000C601B501A40193010E948A32CA01B901D6
:1011800021962CAD3DAD4EAD5FAD2197BAC1211476
:1011900031044104510471F461E070E080E090E0BA
:1011A00020E030E040E050E00E948A32C901DA01DC
:1011B0001C012D0100E0201600E0300601E0400691
:1011C00000E0500688F41FEF211631044104510459
:1011D00039F030F068E0E62EF12C012D112D18C009
:1011E000EE24FF24870114C040E0241640E03406BA
:1011F00040E0440641E0540630F058E1E52EF12C81
:10120000012D112D05C040E1E42EF12C012D112DF1
:10121000D201C1010E2C04C0B695A795979587956C
:101220000A94D2F788599F4FDC012C9130E2A32E0B
:10123000B12CC12CD12CD601C5018E199F09A00B50
:10124000B10B7C018D01E21AF10801091109E9AE27
:10125000FAAE0BAF1CAFE114F1040105110539F42E
:1012600064015301A218B308C408D508E2C0F9AC60
:101270006896FFAE68970F2C04C0220C331C441CE8
:10128000551C0A94D2F78A2D8F1964015301082E38
:1012900004C0D694C794B794A7940A94D2F7A40133
:1012A000930104C0220F331F441F551FFA94D2F735
:1012B0006C966CAC7DAC8EAC9FAC6C9704C0969475
:1012C0008794779467948A95D2F784017301E22A10
:1012D000F32A042B152BEDA6FEA60FA718AB32019F
:1012E00088249924B201A1016070707025964CAFDA
:1012F0005DAF6EAF7FAF2597C601B501A401930125
:101300000E948A327B018C01C601B501A4019301C0
:101310000E948A32CA01B90125962CAD3DAD4EAD71
:101320005FAD25970E946B329B01AC018701FF24C2
:10133000EE24ADA4BEA4CFA4D8A8C601AA27BB277B
:101340005C016D01AE28BF28C02AD12AA216B306BF
:10135000C406D50690F4A20CB31CC41CD51CA21460
:10136000B304C404D50448F0A216B306C406D506D7
:1013700020F4A20CB31CC41CD51CA21AB30AC40AC4
:10138000D50AC601B501A40193010E948A327B01EE
:101390008C01C601B501A40193010E948A32CA01E1
:1013A000B90125962CAD3DAD4EAD5FAD25970E94A0
:1013B0006B329B01AC018701FF24EE248DA59EA515
:1013C000AFA5B8A9A070B07057016801A82AB92AC2
:1013D000CA2ADB2AA216B306C406D50690F4A20CCC
:1013E000B31CC41CD51CA214B304C404D50448F017
:1013F000A216B306C406D50620F4A20CB31CC41C66
:10140000D51C6C96ECACFDAC0EAD1FAD6C97689620
:101410000FAC689704C0EE0CFF1C001F111F0A944C
:10142000D2F7E9AAFAAA0BAB1CABA21AB30AC40AF8
:10143000D50A320188249924B201A101607070702C
:1014400029964CAF5DAF6EAF7FAF2997C601B5014E
:10145000A40193010E948A327B018C01C601B5016F
:10146000A40193010E948A32CA01B90129962CADC8
:101470003DAD4EAD5FAD29970E946B329B01AC0133
:101480008701FF24EE24A9A8BAA8CBA8DCA8C6012E
:10149000AA27BB2757016801A82AB92ACA2ADB2A2A
:1014A000A216B306C406D50690F4A20CB31CC41C45
:1014B000D51CA214B304C404D50448F0A216B30684
:1014C000C406D50620F4A20CB31CC41CD51CA21A59
:1014D000B30AC40AD50AC601B501A40193010E944A
:1014E0008A327B018C01C601B501A40193010E94DF
:1014F0008A32CA01B90129962CAD3DAD4EAD5FAD22
:1015000029970E946B329B01AC018701FF24EE24D6
:1015100089A99AA9ABA9BCA9A070B070E82AF92A38
:101520000A2B1B2BE216F3060407150790F4E20CB6
:10153000F31C041D151DE214F3040405150548F001
:10154000E216F3060407150720F4E20CF31C041D51
:10155000151DE21AF30A040B150BD801C70109ACDB
:1015600004C0B695A795979587950A94D2F7898B6D
:101570009A8BAB8BBC8B1D8A1E8A1F8A188E282FD4
:101580003A894B895C896D890CC36A147B048C048D
:101590009D0408F409C300E0A01600E0B00601E0D5
:1015A000C00600E0D00688F41FEFA116B104C10404
:1015B000D10439F030F028E0E22EF12C012D112D6C
:1015C00018C0EE24FF24870114C040E0A41640E0B8
:1015D000B40640E0C40641E0D40630F098E1E92EBC
:1015E000F12C012D112D05C080E1E82EF12C012DEB
:1015F000112DD601C5010E2C04C0B695A79597955F
:1016000087950A94D2F788599F4FDC012C9180E28C
:1016100090E0A0E0B0E08E199F09A00BB10B821BF7
:101620009109A109B1090097A105B10509F04FC0C1
:10163000A614B704C804D90458F06C96ECACFDAC01
:101640000EAD1FAD6C97E214F3040405150568F1A7
:101650006C96ECACFDAC0EAD1FAD6C97E218F308C8
:1016600004091509A40193012A193B094C095D09D4
:10167000AA24BB2465016C966CAD7DAD8EAD9FAD8B
:101680006C976E157F058007910728F4B1E0AB2EAB
:10169000B12CC12CD12CDA01C9018A199B09AC09E2
:1016A000BD098DAB9EABAFABB8AFE98AFA8A0B8BA5
:1016B0001C8B6DA87EA88FA898AC6D8A7E8A8F8AB5
:1016C000988E2E2D3A894B895C896DA96AC26796DE
:1016D0008FAF6797A6019501082E04C0220F331F14
:1016E000441F551F0A94D2F7A0E2AA2EA81A6696A4
:1016F000AFAE6697D201C10104C0B695A795979584
:101700008795AA94D2F76C017D01C22AD32AE42AD4
:10171000F52AC9A6DAA6EBA6FCA682017101679696
:101720000FAC679704C0EE0CFF1C001F111F0A943A
:10173000D2F7EDA2FEA20FA318A76401530166968B
:101740000FAC669704C0D694C794B794A7940A9434
:10175000D2F7A401930167960FAC679704C0220FDC
:10176000331F441F551F0A94D2F76C968CAD9DAD64
:10177000AEADBFAD6C9766960FAC669704C0B695DC
:10178000A795979587950A94D2F73C014D01622A57
:10179000732A842A952A69A27AA28BA29CA26C96AB
:1017A000ECACFDAC0EAD1FAD6C9767960FAC6797B8
:1017B00004C0EE0CFF1C001F111F0A94D2F7ED8E1F
:1017C000FE8E0F8F18A349A55AA56BA57CA53B01DA
:1017D00088249924607070702D964CAF5DAF6EAF09
:1017E0007FAF2D97C601B501A40193010E948A32F3
:1017F0007B018C01C601B501A40193010E948A32CC
:10180000C901DA011C012D01C201B1012D962CADD7
:101810003DAD4EAD5FAD2D970E946B329B01AC018B
:101820008701FF24EE24A9A0BAA0CBA0DCA0C601AA
:10183000AA27BB2757016801A82AB92ACA2ADB2A86
:10184000A216B306C406D50600F50894210831088F
:1018500041085108E9A4FAA40BA51CA5AE0CBF1CB5
:10186000C01ED11EAE14BF04C006D10670F0A21671
:10187000B306C406D50648F4089421083108410887
:101880005108AE0CBF1CC01ED11EA21AB30AC40A56
:10189000D50AC601B501A40193010E948A327B01D9
:1018A0008C01C601B501A40193010E948A32C901CD
:1018B000DA013C014D01C401B3012D962CAD3DADC3
:1018C0004EAD5FAD2D970E946B329B01AC0187013D
:1018D000FF24EE2489A19AA1ABA1BCA1A070B07095
:1018E00057016801A82AB92ACA2ADB2AA216B30618
:1018F000C406D50600F508946108710881089108AE
:1019000069A57AA58BA59CA5A60EB71EC81ED91ED3
:10191000A616B706C806D90670F0A216B306C40606
:10192000D50648F408946108710881089108A60E4C
:10193000B71EC81ED91ED601C501821B930BA40B6E
:10194000B50B898F9A8FAB8FBC8FD10199278827D0
:1019500084017301E82AF92A0A2B1B2B4FEFA42ECE
:101960004FEFB42EC12CD12CAE20BF20C022D122EB
:101970007801002711276DA07EA08FA098A44FEFBB
:101980005FEF60E070E064227522862297228DA1CD
:101990009EA1AFA1B8A5BD018827992765966CAF18
:1019A0007DAF8EAF9FAF6597C601B501A4019301CE
:1019B0000E946B3261966CAF7DAF8EAF9FAF619727
:1019C000C601B50165962CAD3DAD4EAD5FAD6597D9
:1019D0000E946B321B012C01C801B701A4019301C5
:1019E0000E946B325B016C01C801B70165962CAD9A
:1019F0003DAD4EAD5FAD65970E946B327B018C01B2
:101A0000A6019501220D331D441D551D61966CAC38
:101A10007DAC8EAC9FAC6197C401AA27BB27280F71
:101A2000391F4A1F5B1F2A153B054C055D0548F40D
:101A3000812C912CE1E0AE2EB12CE80CF91C0A1D92
:101A40001B1DCA01AA27BB2757016801A80EB91E92
:101A5000CA1EDB1EA9013327222761968CAD9DADDE
:101A6000AEADBFAD6197A070B070280F391F4A1F8F
:101A70005B1FE98CFA8C0B8D1C8DEA14FB040C05A2
:101A80001D0570F0AE14BF04C006D10669F56D8D5A
:101A90007E8D8F8D98A1621773078407950720F5B7
:101AA000DA01C9016DA07EA08FA098A486199709BC
:101AB000A809B909E9A4FAA40BA51CA5AE18BF088A
:101AC000C00AD10AEE24FF248701281739074A07E4
:101AD0005B0728F421E0E22EF12C012D112DAE1828
:101AE000BF08C00AD10A02C0DA01C9016D8C7E8C20
:101AF0008F8C98A0681A790A8A0A9B0A498D5A8D98
:101B00006B8D7C8D4A195B096C097D095A016B014B
:101B10002224332421016D8D7E8D8F8D98A1661531
:101B200077058805990528F481E0282E312C412C71
:101B3000512C86017501E218F30804091509A80162
:101B4000970166960FAC669704C0220F331F441F9F
:101B5000551F0A94D2F7D401C30167960FAC67975B
:101B600004C0B695A795979587950A94D2F7282B28
:101B7000392B4A2B5B2B298B3A8B4B8B5C8B6796D3
:101B80000FAC679704C016950795F794E7940A94ED
:101B9000D2F7ED8AFE8A0F8B188F3A894B895C89C0
:101BA0006E2D7E898F89988DC55ADF4FE2E10C94A6
:101BB000C832A0E0B0E0EFEDFDE00C94AC32DC0107
:101BC0002B01FA019C91923008F439C1EB01888114
:101BD000823008F433C1943069F4843009F02FC1A5
:101BE00011969C9111978981981709F428C1A0E654
:101BF000B0E025C1843009F421C18230A9F49230CB
:101C000009F01DC19A01AD0188E0EA010990AE0119
:101C1000E90109929E018150C1F7E2018981119683
:101C20009C918923818308C1923009F407C11296DF
:101C30002D903C901397EB018A819B811496AD9077
:101C4000BD90CD90DC901797EC80FD800E811F81B8
:101C50009101281B390BB90137FF04C0662777278C
:101C6000621B730B603271050CF061C01216130613
:101C70006CF537014801062E04C09694879477943A
:101C800067940A94D2F721E030E040E050E004C0CD
:101C9000220F331F441F551F6A95D2F72150304041
:101CA000404050402E213F21402351232115310532
:101CB0004105510521F021E030E040E050E079019C
:101CC0008A01E628F728082919293CC0232BD1F1DD
:101CD000260E371E35014601062E04C096948794C1
:101CE000779467940A94D2F721E030E040E050E026
:101CF00004C0220F331F441F551F6A95D2F721508D
:101D00003040404050402A213B214C215D2121158B
:101D100031054105510521F021E030E040E050E07F
:101D200059016A01A628B728C828D9280BC08215EE
:101D300093052CF01C01AA24BB24650103C0EE24EA
:101D4000FF24870111969C91D20111968C919817CE
:101D500009F445C0992339F0A80197012A193B09D4
:101D60004C095D0906C0A60195012E193F09400BDB
:101D7000510B57FD08C011823382228224833583A0
:101D8000468357831DC081E0818333822282882766
:101D90009927DC01821B930BA40BB50B84839583DD
:101DA000A683B7830DC0220F331F441F551F248302
:101DB00035834683578382819381019793838283FE
:101DC0002481358146815781DA01C9010197A10932
:101DD000B1098F5F9F4FAF4FBF4328F30BC0918373
:101DE00033822282EA0CFB1C0C1D1D1DE482F5824D
:101DF0000683178383E08083248135814681578160
:101E000057FF1AC0C901AA2797FDA095BA2F817064
:101E10009070A070B0705695479537952795822B96
:101E2000932BA42BB52B84839583A683B7838281C0
:101E30009381019693838283DF0101C0D201CD019A
:101E4000CDB7DEB7E2E10C94C832A0E2B0E0EBE23D
:101E5000FFE00C94B83269837A838B839C832D8353
:101E60003E834F835887E9E0EE2EF12CEC0EFD1EE9
:101E7000CE010196B7010E9436128E010F5E1F4FF0
:101E8000CE010596B8010E9436128A8991E0892711
:101E90008A8BC701B801AE01475E5F4F0E94D90D22
:101EA0000E946111A096E6E00C94D432A0E2B0E06A
:101EB000ECE5FFE00C94B83269837A838B839C83D2
:101EC0002D833E834F835887F9E0EF2EF12CEC0EE3
:101ED000FD1ECE010196B7010E9436128E010F5EE3
:101EE0001F4FCE010596B8010E943612C701B801F6
:101EF000AE01475E5F4F0E94D90D0E946111A0960E
:101F0000E6E00C94D432A0E2B0E0E9E8FFE00C9403
:101F1000AC3269837A838B839C832D833E834F838A
:101F20005887CE010196BE01675F7F4F0E9436122F
:101F3000CE010596BE016F5E7F4F0E9436129985D5
:101F4000923088F089898230C8F0943019F4823058
:101F500051F404C0843029F4923081F480E690E09A
:101F6000C6C0923049F420E09A858A89981321E00E
:101F70002A87CE010996BBC0823049F420E09A85B9
:101F80008A89981321E02A8BCE014196B0C02D8416
:101F90003E844F8458886D887E888F88988CEE2484
:101FA000FF248701AA24BB24650140E050E060E0E3
:101FB00070E0E0E0F0E0C10181709070892BE9F001
:101FC000E60CF71C081D191D9A01AB012A0D3B1DDB
:101FD0004C1D5D1D80E090E0A0E0B0E0E614F70449
:101FE0000805190520F481E090E0A0E0B0E0BA0116
:101FF000A901480F591F6A1F7B1FAA0CBB1CCC1CD0
:10200000DD1C97FE08C081E090E0A0E0B0E0A82AC7
:10201000B92ACA2ADB2A3196E032F10549F0660C6A
:10202000771C881C991C5694479437942794C3CFE7
:10203000FA85EA892B893C898B859C85280F391F75
:102040002E5F3F4F17C0CA0181709070892B61F0DD
:1020500016950795F794E79480E090E0A0E0B0E84B
:10206000E82AF92A0A2B1B2B7695679557954795F1
:102070002F5F3F4F77FDE7CF0CC0440F551F661F02
:10208000771F17FD4160EE0CFF1C001F111F215030
:102090003040403090E0590790E0690790E47907BC
:1020A00060F32B8F3C8FDB01CA018F779070A0709B
:1020B000B07080349105A105B10561F447FD0AC0F7
:1020C000E114F1040105110529F0405C5F4F6F4FE9
:1020D0007F4F40781A8EFE1711F081E08A8F4D8F66
:1020E0005E8F6F8F78A383E0898FCE0149960E941F
:1020F0006111A096E2E10C94C832A8E1B0E0E3E8F7
:10210000F0E10C94B83269837A838B839C832D83AE
:102110003E834F83588789E0E82EF12CEC0EFD1E9C
:10212000CE010196B7010E9436128E010F5E1F4F3D
:10213000CE010596B8010E9436128985823040F0A2
:102140008989823028F0C701B8010E94AE1201C00F
:102150008FEF6896E6E00C94D432A8E1B0E0E3EBB0
:10216000F0E10C94B83269837A838B839C832D834E
:102170003E834F83588789E0E82EF12CEC0EFD1E3C
:10218000CE010196B7010E9436128E010F5E1F4FDD
:10219000CE010596B8010E9436128985823040F042
:1021A0008989823028F0C701B8010E94AE1201C0AF
:1021B0008FEF6896E6E00C94D432A8E1B0E0E3EE4D
:1021C000F0E10C94B83269837A838B839C832D83EE
:1021D0003E834F83588789E0E82EF12CEC0EFD1EDC
:1021E000CE010196B7010E9436128E010F5E1F4F7D
:1021F000CE010596B8010E9436128985823040F0E2
:102200008989823028F0C701B8010E94AE1201C04E
:1022100081E06896E6E00C94D432ACE0B0E0E3E113
:10222000F1E10C94BC3269837A838B839C83CE0169
:102230000196BE016B5F7F4F0E9436128D81823006
:1022400061F1823050F1843021F48E81882351F184
:102250002EC02F81388537FD20C06E812F3131058A
:102260001CF06623F9F023C08EE190E0821B930BF3
:1022700029853A854B855C8504C0569547953795E9
:1022800027958A95D2F76623B1F050954095309501
:1022900021953F4F4F4F5F4F0EC020E030E040E0B0
:1022A00050E009C02FEF3FEF4FEF5FE704C020E0A1
:1022B00030E040E050E8B901CA012C96E2E00C940D
:1022C000D832DF92EF92FF920F931F93FC01E480CC
:1022D000F58006811781D1808081823048F480E0CA
:1022E00090E0A0E1B0E0E82AF92A0A2B1B2BA5C058
:1022F000843009F49FC0823021F4EE24FF2487014A
:1023000005C0E114F1040105110519F4E0E0F0E065
:1023100096C0628173819FEF623879070CF05BC0D1
:1023200022E83FEF261B370B2A3131052CF020E045
:1023300030E040E050E02AC0B801A701022E04C0FE
:1023400076956795579547950A94D2F781E090E086
:10235000A0E0B0E004C0880F991FAA1FBB1F2A95F8
:10236000D2F70197A109B1098E219F21A023B123A2
:102370000097A105B10521F081E090E0A0E0B0E078
:102380009A01AB01282B392B4A2B5B2BDA01C901AF
:102390008F779070A070B07080349105A105B10561
:1023A00039F427FF09C0205C3F4F4F4F5F4F04C0F7
:1023B000215C3F4F4F4F5F4FE0E0F0E02030A0E066
:1023C0003A07A0E04A07A0E45A0710F0E1E0F0E085
:1023D00079018A0127C06038710564F5FB01E15875
:1023E000FF4FD801C7018F779070A070B070803414
:1023F0009105A105B10539F4E7FE0DC080E490E038
:10240000A0E0B0E004C08FE390E0A0E0B0E0E80E10
:10241000F91E0A1F1B1F17FF05C016950795F79495
:10242000E794319687E016950795F794E7948A9597
:10243000D1F705C0EE24FF248701EFEFF0E06E2F07
:10244000679566276795902F9F77D794DD24D7945B
:102450008E2F8695492F462B582F5D29B701CA012B
:102460001F910F91FF90EF90DF900895FC01DB0129
:10247000408151812281622F6F7770E0221F2227D5
:10248000221F9381892F880F822B282F30E0991FDC
:102490009927991F11969C93119721153105A9F53C
:1024A000411551056105710511F482E037C082E8DC
:1024B0009FEF13969C938E9312979A01AB0167E05E
:1024C000220F331F441F551F6A95D1F783E08C9369
:1024D0000DC0220F331F441F551F12968D919C91E2
:1024E0001397019713969C938E931297203080E058
:1024F000380780E0480780E4580758F314962D9376
:102500003D934D935C93179708952F3F310579F4D0
:10251000411551056105710519F484E08C93089506
:1025200064FF03C081E08C9312C01C9210C02F572F
:10253000304013963C932E93129783E08C9387E060
:10254000440F551F661F771F8A95D1F77064149644
:102550004D935D936D937C93179708951F93DC01C2
:10256000FB019C91923008F447C08081823008F4CE
:1025700043C0943051F411961C91843099F58181B7
:10258000682F70E0611B71093FC0843021F09230E8
:1025900031F48230B9F18181882389F12DC01196FF
:1025A0001C9111978230F1F081811817D9F412969D
:1025B0002D913C911397828193818217930794F018
:1025C00028173907BCF014968D919D910D90BC9100
:1025D000A02D2481358146815781281739074A0764
:1025E0005B0718F4112341F00AC082179307A40770
:1025F000B50740F4112319F061E070E005C06FEFFA
:102600007FEF02C060E070E0CB011F910895DF937F
:10261000CF93CDB7DEB7AFE5B0E0EFE5F0E0808176
:1026200080688C93CF91DF910895DF93CF93CDB7DE
:10263000DEB7AFE5B0E0EFE5F0E080818F778C9317
:10264000CF91DF910895DF93CF930F92CDB7DEB78F
:102650008983ABE5B0E0EBE5F0E08081482F89812C
:10266000282F30E081E090E0022E02C0880F991FF1
:102670000A94E2F7842B8C930F90CF91DF91089509
:10268000DF93CF930F92CDB7DEB78983ABE5B0E090
:10269000EBE5F0E08081482F8981282F30E081E050
:1026A00090E0022E02C0880F991F0A94E2F78095ED
:1026B00084238C930F90CF91DF910895DF93CF9374
:1026C00000D00F92CDB7DEB78A836B8319828A81DF
:1026D000863009F04BC08B81813079F4A5E5B0E0FC
:1026E000E5E5F0E080818E7F8C93A5E5B0E0E5E53F
:1026F000F0E080818D7F8C93A6C08B81823079F44D
:10270000A5E5B0E0E5E5F0E0808181608C93A5E58A
:10271000B0E0E5E5F0E080818D7F8C9394C08B8103
:10272000833079F4A5E5B0E0E5E5F0E080818E7FC7
:102730008C93A5E5B0E0E5E5F0E0808182608C93C4
:1027400082C08B81843079F4A5E5B0E0E5E5F0E066
:10275000808181608C93A5E5B0E0E5E5F0E08081C3
:1027600082608C9370C081E089836DC08A818730DC
:1027700009F04BC08B81813079F4A5E5B0E0E5E547
:10278000F0E080818B7F8C93A5E5B0E0E5E5F0E09B
:102790008081877F8C9357C08B81823079F4A5E547
:1027A000B0E0E5E5F0E0808184608C93A5E5B0E0E1
:1027B000E5E5F0E08081877F8C9345C08B81833095
:1027C00079F4A5E5B0E0E5E5F0E080818B7F8C93BE
:1027D000A5E5B0E0E5E5F0E0808188608C9333C04A
:1027E0008B81843079F4A5E5B0E0E5E5F0E0808107
:1027F00084608C93A5E5B0E0E5E5F0E08081886039
:102800008C9321C081E089831EC08A818530C9F400
:102810008B81833041F4A4E5B0E0E4E5F0E0808111
:102820008F7B8C9310C08B81843041F4A4E5B0E0A1
:10283000E4E5F0E0808180648C9305C081E08983C9
:1028400002C081E0898389810F900F900F90CF9112
:10285000DF910895DF93CF9300D0CDB7DEB78983A2
:102860008981863091F4EAE5F0E080818295869551
:1028700086958370882F90E081709070882319F07E
:1028800081E08A8328C01A8226C08981873069F452
:10289000EAE5F0E08081881F8827881F813019F4DD
:1028A00081E08A8318C01A8216C08981853089F434
:1028B000EAE5F0E08081829586958770882F90E028
:1028C00081709070882319F081E08A8304C01A8295
:1028D00002C08FEF8A838A810F900F90CF91DF9192
:1028E0000895DF93CF9300D0CDB7DEB79A83898365
:1028F00089819A819093F5018093F4010F900F9054
:10290000CF91DF910895DF93CF9300D0CDB7DEB79D
:102910009A83898389819A819093F7018093F60144
:102920000F900F90CF91DF910895DF93CF9300D058
:10293000CDB7DEB79A83898389819A819093F90113
:102940008093F8010F900F90CF91DF9108951F921F
:102950000F920FB60F9211242F933F934F935F93D3
:102960006F937F938F939F93AF93BF93EF93FF9357
:10297000DF93CF93CDB7DEB7E091F401F091F5018D
:102980000995CF91DF91FF91EF91BF91AF919F9109
:102990008F917F916F915F914F913F912F910F9008
:1029A0000FBE0F901F9018951F920F920FB60F92A7
:1029B00011242F933F934F935F936F937F938F9344
:1029C0009F93AF93BF93EF93FF93DF93CF93CDB7D5
:1029D000DEB7E091F601F091F7010995CF91DF9113
:1029E000FF91EF91BF91AF919F918F917F916F91E7
:1029F0005F914F913F912F910F900FBE0F901F90BD
:102A000018951F920F920FB60F9211242F933F9398
:102A10004F935F936F937F938F939F93AF93BF93E6
:102A2000EF93FF93DF93CF93CDB7DEB7E091F8013B
:102A3000F091F9010995CF91DF91FF91EF91BF914D
:102A4000AF919F918F917F916F915F914F913F9146
:102A50002F910F900FBE0F901F901895DF93CF937B
:102A6000CDB7DEB7EAE3F0E08FE08083E7E3F0E0A4
:102A700080EF8083E4E3F0E08FEF8083E1E3F0E038
:102A80008FEF8083CF91DF910895DF93CF930F92E3
:102A9000CDB7DEB78983EBE3F0E0908189819817A9
:102AA00029F4EAE3F0E08FE0808320C0E8E3F0E07F
:102AB00090818981981729F4E7E3F0E080EF808323
:102AC00015C0E5E3F0E090818981981729F4E4E3EB
:102AD000F0E08FEF80830AC0E2E3F0E0908189812B
:102AE000981721F4E1E3F0E08FEF80830F90CF910E
:102AF000DF910895DF93CF93CDB7DEB72B970FB655
:102B0000F894DEBF0FBECDBF8A836B8319828A81A2
:102B10008830D8F58B81282F30E03B872A878A853B
:102B20009B85009731F02A853B8521303105B1F036
:102B300029C0ABE3B0E0EBE3F0E08081482F8A816D
:102B4000282F30E081E090E0022E02C0880F991F0C
:102B50000A94E2F7809584238C93F8C0ABE3B0E04D
:102B6000EBE3F0E08081482F8A81282F30E081E07C
:102B700090E0022E02C0880F991F0A94E2F7842B7E
:102B80008C93E4C081E08983E1C08A81883008F4B5
:102B900045C08A81803108F041C08B81282F30E008
:102BA0003987288788859985009731F02885398568
:102BB00021303105C9F02FC0A8E3B0E0E8E3F0E030
:102BC0008081482F8A81882F90E09C012770307087
:102BD00081E090E0022E02C0880F991F0A94E2F76C
:102BE000809584238C93B2C0A8E3B0E0E8E3F0E0E2
:102BF0008081482F8A81882F90E09C012770307057
:102C000081E090E0022E02C0880F991F0A94E2F73B
:102C1000842B8C939BC081E0898398C08A8180310A
:102C200008F445C08A81883108F041C08B81282F83
:102C300030E03F832E838E819F81009731F02E817B
:102C40003F8121303105C9F02FC0A5E3B0E0E5E3B5
:102C5000F0E08081482F8A81882F90E09C012F70BE
:102C6000307081E090E0022E02C0880F991F0A9414
:102C7000E2F7809584238C9369C0A5E3B0E0E5E397
:102C8000F0E08081482F8A81882F90E09C012F708E
:102C9000307081E090E0022E02C0880F991F0A94E4
:102CA000E2F7842B8C9352C081E089834FC08A81E4
:102CB000883108F449C08A81803208F045C08B8190
:102CC000282F30E03D832C838C819D81009731F04B
:102CD0002C813D8121303105D9F033C0A2E3B0E031
:102CE000E2E3F0E08081482F8A8198E1692F0E9419
:102CF0004432892F282F30E081E090E0022E02C07C
:102D0000880F991F0A94E2F7809584238C931EC044
:102D1000A2E3B0E0E2E3F0E08081482F8A8198E10D
:102D2000692F0E944432892F282F30E081E090E003
:102D3000022E02C0880F991F0A94E2F7842B8C930D
:102D400005C081E0898302C081E0898389812B9657
:102D50000FB6F894DEBF0FBECDBFCF91DF910895BF
:102D6000DF93CF9300D000D0CDB7DEB78A837C83CA
:102D70006B8319828B819C81009709F471C08A81D1
:102D80008830A0F4E9E3F0E08081282F30E08A81E8
:102D9000882F90E0A90102C0559547958A95E2F7E2
:102DA000CA018170EB81FC8180835CC08A8188309C
:102DB000C8F08A818031B0F4E6E3F0E08081282F0A
:102DC00030E08A81882F90E087709070A90102C05E
:102DD000559547958A95E2F7CA018170EB81FC8190
:102DE000808340C08A818031C8F08A818831B0F404
:102DF000E3E3F0E08081282F30E08A81882F90E0A3
:102E00008F709070A90102C0559547958A95E2F799
:102E1000CA018170EB81FC81808324C08A81883162
:102E2000E0F08A818032C8F4E0E3F0E08081282F6E
:102E300030E08A8198E1692F0E944432892F882FDF
:102E400090E0A90102C0559547958A95E2F7CA011D
:102E50008170EB81FC81808305C081E0898302C0A1
:102E600082E0898389810F900F900F900F90CF910E
:102E7000DF910895DF93CF9300D0CDB7DEB789837C
:102E80006A8389816A810E947A150F900F90CF9191
:102E9000DF910895DF93CF93CDB7DEB727970FB6B5
:102EA000F894DEBF0FBECDBF9C838B837E836D8382
:102EB0004F831A8219821DC08981282F30E08B81AF
:102EC0009C81FC01E20FF31F40818981282F30E0B3
:102ED0008D819E81FC01E20FF31F9081842F692F69
:102EE0000E947A158A838A81882339F489818F5FC9
:102EF000898399818F819817F8F28A8127960FB676
:102F0000F894DEBF0FBECDBFCF91DF910895DF9360
:102F1000CF93CDB7DEB7A7E2B0E0E7E2F0E0808183
:102F200080628C93A7E2B0E0E7E2F0E080818F7BE3
:102F30008C93A7E2B0E0E7E2F0E080818F778C939A
:102F4000A6E2B0E0E6E2F0E080818F778C93A6E223
:102F5000B0E0E6E2F0E080818F7B8C93A6E2B0E007
:102F6000E6E2F0E080818F7D8C93A6E2B0E0E6E2BD
:102F7000F0E080818F7E8C93A6E2B0E0E6E2F0E0A4
:102F80008081877F8C93A6E2B0E0E6E2F0E080816A
:102F900080628C93A6E2B0E0E6E2F0E080818F7D73
:102FA0008C93CF91DF910895DF93CF93CDB7DEB7A8
:102FB000A6E2B0E0E6E2F0E0808180688C93CF91F9
:102FC000DF910895DF93CF93CDB7DEB7A6E2B0E0EF
:102FD000E6E2F0E080818F778C93CF91DF910895C6
:102FE000DF93CF93CDB7DEB7A6E2B0E0E6E2F0E044
:102FF000808188608C93CF91DF910895DF93CF9388
:10300000CDB7DEB7A6E2B0E0E6E2F0E08081877FF0
:103010008C93CF91DF910895DF93CF9300D0CDB7FC
:10302000DEB79A83898389819A819093FB0180938B
:10303000FA010F900F90CF91DF910895DF93CF9316
:103040000F92CDB7DEB78983A7E2B0E0E7E2F0E008
:1030500080818F7B8C93A7E2B0E0E7E2F0E0808193
:103060008F778C93A7E2B0E0E7E2F0E080818F7D7C
:103070008C93A7E2B0E0E7E2F0E090818981892BB0
:103080008C93A6E2B0E0E6E2F0E0808180648C936D
:103090000F90CF91DF910895DF93CF930F92CDB72B
:1030A000DEB789838981883010F5A6E2B0E0E6E2D8
:1030B000F0E0808180628C93A0E5B0E0E0E5F0E094
:1030C00080818F718C93A0E5B0E0E0E5F0E0808135
:1030D000282F8981882F90E0880F991F82959295DB
:1030E000907F9827807F9827822B8C930AC08981B4
:1030F000883039F4A6E2B0E0E6E2F0E080818F7D2E
:103100008C930F90CF91DF910895DF93CF9300D0F0
:103110000F92CDB7DEB78B838B810E941E18E6E23B
:10312000F0E0808182958F70882F90E081709070A0
:103130000097A9F3A6E2B0E0E6E2F0E080818061CA
:103140008C93E5E2F0E08081882F90E09A83898378
:1031500089819A810F900F900F90CF91DF91089500
:10316000DF93CF93CDB7DEB78091FC019091FD0145
:10317000CF91DF9108951F920F920FB60F921124F5
:103180002F933F934F935F936F937F938F939F936F
:10319000AF93BF93EF93FF93DF93CF93CDB7DEB79A
:1031A0008091FA019091FB01009729F0E091FA01DA
:1031B000F091FB010995E5E2F0E08081882F90E035
:1031C0009093FD018093FC01CF91DF91FF91EF91EE
:1031D000BF91AF919F918F917F916F915F914F912F
:1031E0003F912F910F900FBE0F901F901895DF9376
:1031F000CF93CDB7DEB7A1970FB6F894DEBF0FBE61
:10320000CDBF89A388E161E00E947A1589A18695E6
:1032100086958695882F90E0A0E0B0E08D8F9E8FF8
:10322000AF8FB8A328C080ED97E0A0E0B0E0898F11
:103230009A8FAB8FBC8F0CC00000898D9A8DAB8D9F
:10324000BC8D0197A109B109898F9A8FAB8FBC8F73
:10325000898D9A8DAB8DBC8D0097A105B10561F765
:103260008D8D9E8DAF8DB8A10197A109B1098D8F6C
:103270009E8FAF8FB8A38D8D9E8DAF8DB8A1009717
:10328000A105B10581F688E160E00E947A1589E127
:1032900061E00E947A1589A1869586958695882F8A
:1032A00090E0A0E0B0E08D8B9E8BAF8BB88F28C0F4
:1032B00080ED97E0A0E0B0E0898B9A8BAB8BBC8B64
:1032C0000CC0000089899A89AB89BC890197A10942
:1032D000B109898B9A8BAB8BBC8B89899A89AB8915
:1032E000BC890097A105B10561F78D899E89AF89D9
:1032F000B88D0197A109B1098D8B9E8BAF8BB88FCB
:103300008D899E89AF89B88D0097A105B10581F699
:1033100089E160E00E947A158AE161E00E947A15F5
:1033200089A1869586958695882F90E0A0E0B0E0EB
:103330008D879E87AF87B88B28C080ED97E0A0E08F
:10334000B0E089879A87AB87BC870CC0000089856D
:103350009A85AB85BC850197A109B10989879A87B0
:10336000AB87BC8789859A85AB85BC850097A1050D
:10337000B10561F78D859E85AF85B8890197A10953
:10338000B1098D879E87AF87B88B8D859E85AF8568
:10339000B8890097A105B10581F68AE160E00E9435
:1033A0007A158BE161E00E947A1589A18695869550
:1033B0008695882F90E0A0E0B0E08D839E83AF8358
:1033C000B88728C080ED97E0A0E0B0E089839A83B9
:1033D000AB83BC830CC0000089819A81AB81BC8126
:1033E0000197A109B10989839A83AB83BC83898141
:1033F0009A81AB81BC810097A105B10561F78D81F0
:103400009E81AF81B8850197A109B1098D839E8303
:10341000AF83B8878D819E81AF81B8850097A10564
:10342000B10581F68BE160E00E947A15A1960FB696
:10343000F894DEBF0FBECDBFCF91DF910895DF932B
:10344000CF93CDB7DEB7A4970FB6F894DEBF0FBE0B
:10345000CDBF69A37AA38BA39CA38BE161E00E94FB
:103460007A1589A19AA1ABA1BCA1689412F8B6956E
:10347000A795979587951694D1F78D8F9E8FAF8FCF
:10348000B8A328C080ED97E0A0E0B0E0898F9A8FC4
:10349000AB8FBC8F0CC00000898D9A8DAB8DBC8D1D
:1034A0000197A109B109898F9A8FAB8FBC8F898D44
:1034B0009A8DAB8DBC8D0097A105B10561F78D8DFF
:1034C0009E8DAF8DB8A10197A109B1098D8F9E8FF7
:1034D000AF8FB8A38D8D9E8DAF8DB8A10097A1053C
:1034E000B10581F68BE160E00E947A158AE161E026
:1034F0000E947A1589A19AA1ABA1BCA1689412F887
:10350000B695A795979587951694D1F78D8B9E8B39
:10351000AF8BB88F28C080ED97E0A0E0B0E0898B3A
:103520009A8BAB8BBC8B0CC0000089899A89AB89C4
:10353000BC890197A109B109898B9A8BAB8BBC8B94
:1035400089899A89AB89BC890097A105B10561F782
:103550008D899E89AF89B88D0197A109B1098D8B9D
:103560009E8BAF8BB88F8D899E89AF89B88D009760
:10357000A105B10581F68AE160E00E947A1589E132
:1035800061E00E947A1589A19AA1ABA1BCA16894BF
:1035900012F8B695A795979587951694D1F78D87CC
:1035A0009E87AF87B88B28C080ED97E0A0E0B0E0A1
:1035B00089879A87AB87BC870CC0000089859A856C
:1035C000AB85BC850197A109B10989879A87AB872B
:1035D000BC8789859A85AB85BC850097A105B10517
:1035E00061F78D859E85AF85B8890197A109B109DD
:1035F0008D879E87AF87B88B8D859E85AF85B8896F
:103600000097A105B10581F689E160E00E947A1575
:1036100088E161E00E947A1589A19AA1ABA1BCA1C1
:10362000689412F8B695A795979587951694D1F753
:103630008D839E83AF83B88728C080ED97E0A0E09C
:10364000B0E089839A83AB83BC830CC0000089817E
:103650009A81AB81BC810197A109B10989839A83C1
:10366000AB83BC8389819A81AB81BC810097A10522
:10367000B10561F78D819E81AF81B8850197A10960
:10368000B1098D839E83AF83B8878D819E81AF8181
:10369000B8850097A105B10581F688E160E00E9438
:1036A0007A15A4960FB6F894DEBF0FBECDBFCF91AA
:1036B000DF910895DF93CF93CDB7DEB7C954D040E3
:1036C0000FB6F894DEBF0FBECDBFFE01E75BFF4F24
:1036D000808388E161E00E947A15FE01E75BFF4F7D
:1036E0008081869586958695FE01EB5BFF4F882F3E
:1036F00090E0A0E0B0E080839183A283B3833CC0DC
:10370000FE01EF5BFF4F80ED97E0A0E0B0E080832B
:103710009183A283B38313C000009E012F5B3F4FB0
:10372000FE01EF5BFF4F80819181A281B381019700
:10373000A109B109F90180839183A283B383FE01BA
:10374000EF5BFF4F80819181A281B3810097A1053A
:10375000B10511F79E012B5B3F4FFE01EB5BFF4F65
:1037600080819181A281B3810197A109B109F901F9
:1037700080839183A283B383FE01EB5BFF4F808143
:103780009181A281B3810097A105B10509F0B8CF5D
:1037900088E160E00E947A1588E161E00E947A1574
:1037A00089E161E00E947A15FE01E75BFF4F8081AD
:1037B000869586958695882F90E0A0E0B0E0FE0182
:1037C000FD9680839183A283B3832CC080ED97E024
:1037D000A0E0B0E089AF9AAFABAFBCAF0CC00000C7
:1037E00089AD9AADABADBCAD0197A109B10989AF67
:1037F0009AAFABAFBCAF89AD9AADABADBCAD0097E6
:10380000A105B10561F7FE01FD9680819181A2813C
:10381000B3810197A109B109FE01FD9680839183CF
:10382000A283B383FE01FD9680819181A281B38141
:103830000097A105B10551F688E160E00E947A1574
:1038400089E160E00E947A1589E161E00E947A15C1
:10385000FE01E75BFF4F8081869586958695882FD0
:1038600090E0A0E0B0E08DAB9EABAFABB8AF28C0AE
:1038700080ED97E0A0E0B0E089AB9AABABABBCAB1E
:103880000CC0000089A99AA9ABA9BCA90197A109FC
:10389000B10989AB9AABABABBCAB89A99AA9ABA96F
:1038A000BCA90097A105B10561F78DA99EA9AFA993
:1038B000B8AD0197A109B1098DAB9EABAFABB8AF65
:1038C0008DA99EA9AFA9B8AD0097A105B10581F654
:1038D00089E160E00E947A1589E161E00E947A1531
:1038E0008AE161E00E947A15FE01E75BFF4F80816B
:1038F000869586958695882F90E0A0E0B0E08DA70C
:103900009EA7AFA7B8AB28C080ED97E0A0E0B0E0DD
:1039100089A79AA7ABA7BCA70CC0000089A59AA548
:10392000ABA5BCA50197A109B10989A79AA7ABA727
:10393000BCA789A59AA5ABA5BCA50097A105B10513
:1039400061F78DA59EA5AFA5B8A90197A109B109F9
:103950008DA79EA7AFA7B8AB8DA59EA5AFA5B8A90B
:103960000097A105B10581F689E160E00E947A1512
:103970008AE160E00E947A158AE161E00E947A158E
:10398000FE01E75BFF4F8081869586958695882F9F
:1039900090E0A0E0B0E08DA39EA3AFA3B8A728C09D
:1039A00080ED97E0A0E0B0E089A39AA3ABA3BCA30D
:1039B0000CC0000089A19AA1ABA1BCA10197A109EB
:1039C000B10989A39AA3ABA3BCA389A19AA1ABA176
:1039D000BCA10097A105B10561F78DA19EA1AFA182
:1039E000B8A50197A109B1098DA39EA3AFA3B8A75C
:1039F0008DA19EA1AFA1B8A50097A105B10581F643
:103A00008AE160E00E947A158AE161E00E947A15FD
:103A10008BE161E00E947A15FE01E75BFF4F808138
:103A2000869586958695882F90E0A0E0B0E08D8FF2
:103A30009E8FAF8FB8A328C080ED97E0A0E0B0E0E4
:103A4000898F9A8FAB8FBC8F0CC00000898D9A8DA7
:103A5000AB8DBC8D0197A109B109898F9A8FAB8F6E
:103A6000BC8F898D9A8DAB8DBC8D0097A105B1055A
:103A700061F78D8D9E8DAF8DB8A10197A109B10918
:103A80008D8F9E8FAF8FB8A38D8D9E8DAF8DB8A17A
:103A90000097A105B10581F68AE160E00E947A15E0
:103AA0008BE160E00E947A158BE161E00E947A155B
:103AB000FE01E75BFF4F8081869586958695882F6E
:103AC00090E0A0E0B0E08D8B9E8BAF8BB88F28C0CC
:103AD00080ED97E0A0E0B0E0898B9A8BAB8BBC8B3C
:103AE0000CC0000089899A89AB89BC890197A1091A
:103AF000B109898B9A8BAB8BBC8B89899A89AB89ED
:103B0000BC890097A105B10561F78D899E89AF89B0
:103B1000B88D0197A109B1098D8B9E8BAF8BB88FA2
:103B20008D899E89AF89B88D0097A105B10581F671
:103B30008BE160E00E947A1588E161E00E947A15CD
:103B40008BE161E00E947A15FE01E75BFF4F808107
:103B5000869586958695882F90E0A0E0B0E08D87C9
:103B60009E87AF87B88B28C080ED97E0A0E0B0E0DB
:103B700089879A87AB87BC870CC0000089859A85A6
:103B8000AB85BC850197A109B10989879A87AB8765
:103B9000BC8789859A85AB85BC850097A105B10551
:103BA00061F78D859E85AF85B8890197A109B10917
:103BB0008D879E87AF87B88B8D859E85AF85B889A9
:103BC0000097A105B10581F688E160E00E947A15B1
:103BD0008BE160E00E947A1588E161E00E947A152D
:103BE000FE01E75BFF4F8081869586958695882F3D
:103BF00090E0A0E0B0E08D839E83AF83B88728C0BB
:103C000080ED97E0A0E0B0E089839A83AB83BC832A
:103C10000CC0000089819A81AB81BC810197A10908
:103C2000B10989839A83AB83BC8389819A81AB81F3
:103C3000BC810097A105B10561F78D819E81AF819F
:103C4000B8850197A109B1098D839E83AF83B88799
:103C50008D819E81AF81B8850097A105B10581F660
:103C6000C75BDF4F0FB6F894DEBF0FBECDBFCF915D
:103C7000DF910895DF93CF93CDB7DEB7C154D04025
:103C80000FB6F894DEBF0FBECDBFFE01EF5BFF4F56
:103C9000808388E161E00E947A158BE161E00E94F7
:103CA0007A15FE01EF5BFF4F80818695869586959C
:103CB000882F90E0A0E0B0E0FE01FD968083918324
:103CC000A283B3832CC080ED97E0A0E0B0E089AF81
:103CD0009AAFABAFBCAF0CC0000089AD9AADABAD35
:103CE000BCAD0197A109B10989AF9AAFABAFBCAF29
:103CF00089AD9AADABADBCAD0097A105B10561F73B
:103D0000FE01FD9680819181A281B3810197A10975
:103D1000B109FE01FD9680839183A283B383FE01E6
:103D2000FD9680819181A281B3810097A105B105A3
:103D300051F688E160E00E947A158BE160E00E9414
:103D40007A158BE161E00E947A15FE01EF5BFF4F6F
:103D50008081869586958695882F90E0A0E0B0E0DA
:103D60008DAB9EABAFABB8AF28C080ED97E0A0E0C5
:103D7000B0E089AB9AABABABBCAB0CC0000089A97F
:103D80009AA9ABA9BCA90197A109B10989AB9AABC2
:103D9000ABABBCAB89A99AA9ABA9BCA90097A105FB
:103DA000B10561F78DA99EA9AFA9B8AD0197A10989
:103DB000B1098DAB9EABAFABB8AF8DA99EA9AFA932
:103DC000B8AD0097A105B10581F68BE160E00E94D6
:103DD0007A158BE161E00E947A158AE161E00E9428
:103DE0007A15FE01EF5BFF4F80818695869586955B
:103DF000882F90E0A0E0B0E08DA79EA7AFA7B8AB5A
:103E000028C080ED97E0A0E0B0E089A79AA7ABA713
:103E1000BCA70CC0000089A59AA5ABA5BCA50197BD
:103E2000A109B10989A79AA7ABA7BCA789A59AA59B
:103E3000ABA5BCA50097A105B10561F78DA59EA511
:103E4000AFA5B8A90197A109B1098DA79EA7AFA7F2
:103E5000B8AB8DA59EA5AFA5B8A90097A105B105E2
:103E600081F68BE160E00E947A158AE160E00E94B1
:103E70007A158AE161E00E947A15FE01EF5BFF4F3F
:103E80008081869586958695882F90E0A0E0B0E0A9
:103E90008DA39EA3AFA3B8A728C080ED97E0A0E0B4
:103EA000B0E089A39AA3ABA3BCA30CC0000089A176
:103EB0009AA1ABA1BCA10197A109B10989A39AA3B9
:103EC000ABA3BCA389A19AA1ABA1BCA10097A105FA
:103ED000B10561F78DA19EA1AFA1B8A50197A10978
:103EE000B1098DA39EA3AFA3B8A78DA19EA1AFA139
:103EF000B8A50097A105B10581F68AE160E00E94AE
:103F00007A158AE161E00E947A1589E161E00E94F8
:103F10007A15FE01EF5BFF4F808186958695869529
:103F2000882F90E0A0E0B0E08D8F9E8FAF8FB8A378
:103F300028C080ED97E0A0E0B0E0898F9A8FAB8F2A
:103F4000BC8F0CC00000898D9A8DAB8DBC8D019704
:103F5000A109B109898F9A8FAB8FBC8F898D9A8DFA
:103F6000AB8DBC8D0097A105B10561F78D8D9E8D40
:103F7000AF8DB8A10197A109B1098D8F9E8FAF8F29
:103F8000B8A38D8D9E8DAF8DB8A10097A105B10509
:103F900081F68AE160E00E947A1589E160E00E9482
:103FA0007A1589E161E00E947A15FE01EF5BFF4F0F
:103FB0008081869586958695882F90E0A0E0B0E078
:103FC0008D8B9E8BAF8BB88F28C080ED97E0A0E0E3
:103FD000B0E0898B9A8BAB8BBC8B0CC000008989BD
:103FE0009A89AB89BC890197A109B109898B9A8B00
:103FF000AB8BBC8B89899A89AB89BC890097A10559
:10400000B10561F78D899E89AF89B88D0197A109A6
:10401000B1098D8B9E8BAF8BB88F8D899E89AF89AF
:10402000B88D0097A105B10581F689E160E00E9495
:104030007A1589E161E00E947A1588E161E00E94C9
:104040007A15FE01EF5BFF4F8081869586958695F8
:10405000882F90E0A0E0B0E08D879E87AF87B88B77
:1040600028C080ED97E0A0E0B0E089879A87AB8711
:10407000BC870CC0000089859A85AB85BC850197FB
:10408000A109B10989879A87AB87BC8789859A85F9
:10409000AB85BC850097A105B10561F78D859E852F
:1040A000AF85B8890197A109B1098D879E87AF8730
:1040B000B88B8D859E85AF85B8890097A105B10520
:1040C00081F689E160E00E947A1588E160E00E9453
:1040D0007A1588E161E00E947A15FE01EF5BFF4FDF
:1040E0008081869586958695882F90E0A0E0B0E047
:1040F0008D839E83AF83B88728C080ED97E0A0E0D2
:10410000B0E089839A83AB83BC830CC000008981B3
:104110009A81AB81BC810197A109B10989839A83F6
:10412000AB83BC8389819A81AB81BC810097A10557
:10413000B10561F78D819E81AF81B8850197A10995
:10414000B1098D839E83AF83B8878D819E81AF81B6
:10415000B8850097A105B10581F6CF5BDF4F0FB69B
:10416000F894DEBF0FBECDBFCF91DF910895DF93EE
:10417000CF93CDB7DEB728970FB6F894DEBF0FBE4A
:10418000CDBF88E1898389E18A838AE18B838BE1D2
:104190008C831D821E821F8218869E012B5F3F4FDB
:1041A000CE010196B90144E00E944A1728960FB645
:1041B000F894DEBF0FBECDBFCF91DF910895DF939E
:1041C000CF93CDB7DEB762970FB6F894DEBF0FBEC0
:1041D000CDBF8C876D871982CE0102969F878E870F
:1041E000EAE9F1E0F98BE88BFAE0FA8BE889F989E2
:1041F0000080888999890196998B888BEE85FF8547
:1042000000828E859F8501969F878E879A8991501F
:104210009A8BEA89EE2351F78C85823098F58D854B
:104220008A3090F58C85282F30E0C901880F991FBE
:10423000880F991F880F991F820F931FFC01E05967
:10424000FE4F8081882371F48D85282F30E0CE01C8
:104250000296FC01E20FF31F90818C85692F0E946A
:104260004E2112C08D85282F30E0CE010296FC0130
:10427000E20FF31F8081982F90958C85692F0E9403
:104280004E2102C081E08983898162960FB6F8943D
:10429000DEBF0FBECDBFCF91DF910895DF93CF93E7
:1042A000CDB7DEB72A970FB6F894DEBF0FBECDBFED
:1042B00089876A8719821BC08981482F50E08A85C7
:1042C000282F30E08981882F90E0B90102C07595D0
:1042D00067958A95E2F7CB01282F2170CE010296CF
:1042E000FC01E40FF51F208389818F5F8983898119
:1042F000873010F38985282F30E0C901880F991F76
:10430000880F991F880F991F820F931F88599E4FFE
:104310009E012E5F3F4FB90147E00E944A172A963F
:104320000FB6F894DEBF0FBECDBFCF91DF910895D9
:10433000DF93CF9300D0CDB7DEB78A8319828A810D
:104340008230E0F58A81282F30E0C901880F991F5B
:10435000880F991F880F991F820F931FFC01E05946
:10436000FE4F80818823A9F48A81282F30E0C9017B
:10437000880F991F880F991F880F991F820F931F0D
:10438000FC01E159FE4F808160E00E947A1589832B
:1043900017C08A81282F30E0C901880F991F880F24
:1043A000991F880F991F820F931FFC01E159FE4F3F
:1043B000808161E00E947A15898302C081E089834F
:1043C00089810F900F90CF91DF910895DF93CF9364
:1043D00000D0CDB7DEB78A8319828A818230E0F5BA
:1043E0008A81282F30E0C901880F991F880F991FF3
:1043F000880F991F820F931FFC01E059FE4F8081A7
:104400008823A9F48A81282F30E0C901880F991FD9
:10441000880F991F880F991F820F931FFC01E15984
:10442000FE4F808161E00E947A15898317C08A81DE
:10443000282F30E0C901880F991F880F991F880F16
:10444000991F820F931FFC01E159FE4F808160E0AC
:104450000E947A15898302C081E0898389810F9047
:104460000F90CF91DF910895DF93CF93CDB7DEB753
:104470002C970FB6F894DEBF0FBECDBF9B878A87FF
:104480006C8719821BC08981482F50E08C85282FAA
:1044900030E08981882F90E0B90102C07595679559
:1044A0008A95E2F7CB01282F2170CE010296FC01FC
:1044B000E40FF51F208389818F5F8983898188308C
:1044C00010F38A859B859E012E5F3F4FB90148E01E
:1044D0000E944A172C960FB6F894DEBF0FBECDBFD0
:1044E000CF91DF9108950F931F93DF93CF93CDB7B3
:1044F000DEB7C455D0400FB6F894DEBF0FBECDBFB7
:10450000FE01EF5AFF4F80E090E0A0EFB1E480831E
:104510009183A283B3838E01035B1F4FFE01EF5A89
:10452000FF4F608171818281938120E030E04AE712
:1045300055E40E94830FDC01CB01F8018083918355
:10454000A283B383FE01E35BFF4F608171818281AF
:10455000938120E030E040E85FE30E94DD10882393
:1045600044F4FE01E55BFF4F81E090E0918380839E
:1045700064C0FE01E35BFF4F6081718182819381A2
:1045800020E03FEF4FE757E40E947D1018160CF033
:1045900043C0FE01EF5AFF4F608171818281938198
:1045A00020E030E040E251E40E94830FDC01CB01C7
:1045B0008E01055B1F4FBC01CD010E94C800DC01CC
:1045C000CB01F801918380831FC0FE01E75BFF4FA1
:1045D00080E991E091838083FE01E75BFF4F80815A
:1045E00091810197F1F7FE01E75BFF4F9183808393
:1045F000DE01A55BBF4FFE01E55BFF4F808191812E
:10460000019711969C938E93FE01E55BFF4F80818D
:1046100091810097D1F627C08E01055B1F4FFE01E7
:10462000E35BFF4F60817181828193810E94C800AA
:10463000DC01CB01F80191838083DE01A95BBF4FD0
:10464000FE01E55BFF4F808191818D939C93FE017C
:10465000E95BFF4F808191810197F1F7FE01E95BF2
:10466000FF4F9183808382E00E949B25FE01ED5BDA
:10467000FF4F80E090E0A0E7B1E480839183A283C4
:10468000B3838E01015C1F4FFE01ED5BFF4F608124
:1046900071818281938120E030E04AE755E40E94F5
:1046A000830FDC01CB01F80180839183A283B38364
:1046B000FE01FF96608171818281938120E030E06C
:1046C00040E85FE30E94DD1088232CF481E090E055
:1046D0009EAF8DAF46C0FE01FF96608171818281E1
:1046E000938120E03FEF4FE757E40E947D101816BA
:1046F00064F5FE01ED5BFF4F6081718182819381E2
:1047000020E030E040E251E40E94830FDC01CB0165
:10471000BC01CD010E94C800DC01CB019EAF8DAF72
:104720000FC080E991E09CAF8BAF8BAD9CAD019742
:10473000F1F79CAF8BAF8DAD9EAD01979EAF8DAF66
:104740008DAD9EAD009769F716C0FE01FF966081A2
:104750007181828193810E94C800DC01CB019EAFF0
:104760008DAF8DAD9EAD9AAF89AF89AD9AAD0197F2
:10477000F1F79AAF89AF88E30E949B2580E090E033
:10478000A0E8BFE38DAB9EABAFABB8AF6DA97EA980
:104790008FA998AD20E030E04AE755E40E94830FEE
:1047A000DC01CB0189AB9AABABABBCAB69A97AA9F5
:1047B0008BA99CA920E030E040E85FE30E94DD1077
:1047C00088232CF481E090E098AB8FA73FC069A9C3
:1047D0007AA98BA99CA920E03FEF4FE757E40E94FC
:1047E0007D1018164CF56DA97EA98FA998AD20E013
:1047F00030E040E251E40E94830FDC01CB01BC01B8
:10480000CD010E94C800DC01CB0198AB8FA70FC07F
:1048100080E991E09EA78DA78DA59EA50197F1F750
:104820009EA78DA78FA598A9019798AB8FA78FA555
:1048300098A9009769F714C069A97AA98BA99CA9BE
:104840000E94C800DC01CB0198AB8FA78FA598A967
:104850009CA78BA78BA59CA50197F1F79CA78BA77D
:104860008CE00E949B2580E090E0A0E8BFE38FA34E
:1048700098A7A9A7BAA76FA178A589A59AA520E0AE
:1048800030E04AE755E40E94830FDC01CB018BA3A3
:104890009CA3ADA3BEA36BA17CA18DA19EA120E092
:1048A00030E040E85FE30E94DD1088232CF481E0D3
:1048B00090E09AA389A33FC06BA17CA18DA19EA18A
:1048C00020E03FEF4FE757E40E947D1018164CF5AB
:1048D0006FA178A589A59AA520E030E040E251E4D7
:1048E0000E94830FDC01CB01BC01CD010E94C800F6
:1048F000DC01CB019AA389A30FC080E991E098A3C2
:104900008F8F8F8D98A10197F1F798A38F8F89A131
:104910009AA101979AA389A389A19AA1009769F7FF
:1049200014C06BA17CA18DA19EA10E94C800DC01D6
:10493000CB019AA389A389A19AA19E8F8D8F8D8D7A
:104940009E8D0197F1F79E8F8D8F81E00E949B25B0
:1049500080E090E0A0E7B1E4898F9A8FAB8FBC8FA5
:10496000698D7A8D8B8D9C8D20E030E04AE755E48F
:104970000E94830FDC01CB018D8B9E8BAF8BB88F98
:104980006D897E898F89988D20E030E040E85FE373
:104990000E94DD1088232CF481E090E09C8B8B8BAF
:1049A0003FC06D897E898F89988D20E03FEF4FE76A
:1049B00057E40E947D1018164CF5698D7A8D8B8D09
:1049C0009C8D20E030E040E251E40E94830FDC0146
:1049D000CB01BC01CD010E94C800DC01CB019C8B46
:1049E0008B8B0FC080E991E09A8B898B89899A899A
:1049F0000197F1F79A8B898B8B899C8901979C8B06
:104A00008B8B8B899C89009769F714C06D897E898F
:104A10008F89988D0E94C800DC01CB019C8B8B8B09
:104A20008B899C89988B8F878F8598890197F1F75F
:104A3000988B8F8786E00E949B2580E090E0A0E025
:104A4000B0E48B879C87AD87BE876B857C858D8521
:104A50009E8520E030E04AE755E40E94830FDC01A8
:104A6000CB018F839887A987BA876F8178858985DD
:104A70009A8520E030E040E85FE30E94DD10882363
:104A80002CF481E090E09E838D833FC06F81788518
:104A900089859A8520E03FEF4FE757E40E947D101B
:104AA00018164CF56B857C858D859E8520E030E061
:104AB00040E251E40E94830FDC01CB01BC01CD0137
:104AC0000E94C800DC01CB019E838D830FC080E96A
:104AD00091E09C838B838B819C810197F1F79C8370
:104AE0008B838D819E8101979E838D838D819E8195
:104AF000009769F714C06F81788589859A850E942F
:104B0000C800DC01CB019E838D838D819E819A83B9
:104B1000898389819A810197F1F79A838983CC5A95
:104B2000DF4F0FB6F894DEBF0FBECDBFCF91DF9140
:104B30001F910F910895DF93CF93CDB7DEB76D9797
:104B40000FB6F894DEBF0FBECDBF8D8F87E160E05A
:104B50000E947A1586E160E00E947A1585E161E0A5
:104B60000E947A158AE791E06D8D0E94342285E1DA
:104B700060E00E947A1580E090E0A0EAB0E4898FBE
:104B80009A8FAB8FBC8F698D7A8D8B8D9C8D20E039
:104B900030E04AE755E40E94830FDC01CB018D8BA6
:104BA0009E8BAF8BB88F6D897E898F89988D20E021
:104BB00030E040E85FE30E94DD1088232CF481E0C0
:104BC00090E09C8B8B8B3FC06D897E898F89988DFF
:104BD00020E03FEF4FE757E40E947D1018164CF598
:104BE000698D7A8D8B8D9C8D20E030E040E251E420
:104BF0000E94830FDC01CB01BC01CD010E94C800E3
:104C0000DC01CB019C8B8B8B0FC080E991E09A8BF0
:104C1000898B89899A890197F1F79A8B898B8B897E
:104C20009C8901979C8B8B8B8B899C89009769F75A
:104C300014C06D897E898F89988D0E94C800DC011F
:104C4000CB019C8B8B8B8B899C89988B8F878F85D5
:104C500098890197F1F7988B8F8785E161E00E9431
:104C60007A1580E090E0A0E2B1E48B879C87AD8765
:104C7000BE876B857C858D859E8520E030E04AE788
:104C800055E40E94830FDC01CB018F839887A987AD
:104C9000BA876F81788589859A8520E030E040E881
:104CA0005FE30E94DD1088232CF481E090E09E8376
:104CB0008D833FC06F81788589859A8520E03FEF9D
:104CC0004FE757E40E947D1018164CF56B857C85E4
:104CD0008D859E8520E030E040E251E40E94830F04
:104CE000DC01CB01BC01CD010E94C800DC01CB017D
:104CF0009E838D830FC080E991E09C838B838B81A1
:104D00009C810197F1F79C838B838D819E81019714
:104D10009E838D838D819E81009769F714C06F817A
:104D2000788589859A850E94C800DC01CB019E8325
:104D30008D838D819E819A83898389819A81019750
:104D4000F1F79A8389836D960FB6F894DEBF0FBE94
:104D5000CDBFCF91DF910895DF93CF93CDB7DEB76D
:104D60006D970FB6F894DEBF0FBECDBF8D8F87E174
:104D700061E00E947A1586E160E00E947A1585E183
:104D800061E00E947A158AE791E06D8D0E943422DD
:104D900085E160E00E947A1580E090E0A0EAB0E44E
:104DA000898F9A8FAB8FBC8F698D7A8D8B8D9C8DFF
:104DB00020E030E04AE755E40E94830FDC01CB019C
:104DC0008D8B9E8BAF8BB88F6D897E898F89988DE7
:104DD00020E030E040E85FE30E94DD1088232CF4FF
:104DE00081E090E09C8B8B8B3FC06D897E898F89A1
:104DF000988D20E03FEF4FE757E40E947D10181692
:104E00004CF5698D7A8D8B8D9C8D20E030E040E2F1
:104E100051E40E94830FDC01CB01BC01CD010E9453
:104E2000C800DC01CB019C8B8B8B0FC080E991E02B
:104E30009A8B898B89899A890197F1F79A8B898B4B
:104E40008B899C8901979C8B8B8B8B899C89009784
:104E500069F714C06D897E898F89988D0E94C8007A
:104E6000DC01CB019C8B8B8B8B899C89988B8F87EA
:104E70008F8598890197F1F7988B8F8785E161E09D
:104E80000E947A1580E090E0A0E2B1E48B879C87D5
:104E9000AD87BE876B857C858D859E8520E030E063
:104EA0004AE755E40E94830FDC01CB018F8398878A
:104EB000A987BA876F81788589859A8520E030E057
:104EC00040E85FE30E94DD1088232CF481E090E04D
:104ED0009E838D833FC06F81788589859A8520E088
:104EE0003FEF4FE757E40E947D1018164CF56B8595
:104EF0007C858D859E8520E030E040E251E40E9473
:104F0000830FDC01CB01BC01CD010E94C800DC0194
:104F1000CB019E838D830FC080E991E09C838B83BE
:104F20008B819C810197F1F79C838B838D819E817E
:104F300001979E838D838D819E81009769F714C0B0
:104F40006F81788589859A850E94C800DC01CB0134
:104F50009E838D838D819E819A83898389819A81A5
:104F60000197F1F79A8389836D960FB6F894DEBFA7
:104F70000FBECDBFCF91DF910895DF93CF93CDB713
:104F8000DEB762970FB6F894DEBF0FBECDBF998B28
:104F9000888B6A8B1F861F8680C08F85282F30E004
:104FA00088899989FC01E20FF31F80810E94AC2659
:104FB00080E090E0A0E0B0E48B879C87AD87BE875F
:104FC0006B857C858D859E8520E030E04AE755E441
:104FD0000E94830FDC01CB018F839887A987BA8752
:104FE0006F81788589859A8520E030E040E85FE32D
:104FF0000E94DD1088232CF481E090E09E838D8355
:105000003FC06F81788589859A8520E03FEF4FE723
:1050100057E40E947D1018164CF56B857C858D85B4
:105020009E8520E030E040E251E40E94830FDC01E5
:10503000CB01BC01CD010E94C800DC01CB019E83E5
:105040008D830FC080E991E09C838B838B819C8151
:105050000197F1F79C838B838D819E8101979E83BD
:105060008D838D819E81009769F714C06F8178854B
:1050700089859A850E94C800DC01CB019E838D83BF
:105080008D819E819A83898389819A810197F1F725
:105090009A8389838F858F5F8F879F858A899817E9
:1050A00008F47BCF62960FB6F894DEBF0FBECDBF7B
:1050B000CF91DF910895DF93CF9300D000D0CDB78B
:1050C000DEB789836A838A818823E1F08A8181310E
:1050D000C8F48981282F30E03C832B838B819C810D
:1050E0008130910531F02B813C812230310531F046
:1050F00009C08A8181580E949B2504C08A818154FD
:105100000E949B250F900F900F900F90CF91DF91F1
:105110000895DF93CF93CDB7DEB762970FB6F894BB
:10512000DEBF0FBECDBF898B6A8B80E40E949B25BA
:10513000188A0CC08889882F90E0FC01EC55FE4F3E
:1051400080810E94AC2688898F5F888B8889803413
:1051500088F380E80E949B2589896A890E945B28E0
:105160001F8678C08F850E94AC2680E090E0A0EA80
:10517000B0E48B879C87AD87BE876B857C858D85EA
:105180009E8520E030E04AE755E40E94830FDC0171
:10519000CB018F839887A987BA876F8178858985A6
:1051A0009A8520E030E040E85FE30E94DD1088232C
:1051B0002CF481E090E09E838D833FC06F817885E1
:1051C00089859A8520E03FEF4FE757E40E947D10E4
:1051D00018164CF56B857C858D859E8520E030E02A
:1051E00040E251E40E94830FDC01CB01BC01CD0100
:1051F0000E94C800DC01CB019E838D830FC080E933
:1052000091E09C838B838B819C810197F1F79C8338
:105210008B838D819E8101979E838D838D819E815D
:10522000009769F714C06F81788589859A850E94F7
:10523000C800DC01CB019E838D838D819E819A8382
:10524000898389819A810197F1F79A8389838F8570
:105250008F5F8F878F85883008F484CF62960FB672
:10526000F894DEBF0FBECDBFCF91DF910895DF93DD
:10527000CF9300D0CDB7DEB79A83898389819A8195
:105280000E94E52D81E00E94EF2E0F900F90CF91AC
:10529000DF910895DF93CF930F92CDB7DEB7898367
:1052A00089810E94912F0F90CF91DF910895DF9314
:1052B000CF9300D000D0CDB7DEB79C838B831A820A
:1052C00019820FC029813A818B819C81FC01E20FF8
:1052D000F31F80810E94912F89819A8101969A8380
:1052E000898329813A818B819C81FC01E20FF31F24
:1052F0008081882339F70F900F900F900F90CF91F6
:10530000DF910895AF92BF92CF92DF92EF92FF921A
:105310000F931F93DF93CF93CDB7DEB7C356D04023
:105320000FB6F894DEBF0FBECDBF6A877B878C8730
:105330009D871A821B821C821D821E821F821886F4
:10534000198619828A859B85AC85BD85BB2394F41B
:105350008A859B85AC85BD85B095A09590958195F6
:105360009F4FAF4FBF4F8A879B87AC87BD878DE22A
:105370000E94912F2A813B814C815D816E817F81CA
:1053800088859985A22EB32EC42ED52EE62EF72E13
:10539000082F192F2A2D3B2D4C2D5D2D6E2D7F2D85
:1053A000802F912F01E00E9449002E8F3F8F48A34C
:1053B00059A36AA37BA38CA39DA32E8D3F8D48A1E7
:1053C00059A16AA17BA18CA19DA102E00E94490084
:1053D0002EA33FA348A759A76AA77BA78CA79DA781
:1053E0008E8D9EA1890F8EA781E08EAB9EA58E8D9E
:1053F000981708F01EAA9F8D8FA1980F9FA791E084
:105400009FAB8FA59F8D891708F01FAA8EA99FA516
:10541000890F88AF81E089AF98AD8FA5981708F004
:1054200019AE9FA989AD982B9FAB98AD9FA788A176
:1054300098A5890F88AB81E08AAF98A988A19817B1
:1054400008F01AAE9FA988A9980F9BAF91E09CAF76
:105450008BAD98A9891708F01CAE8AAD9CAD892B3D
:105460008AAF8BAD88AB99A189A5980F99AB91E0D4
:105470009DAF89A999A1891708F01DAE8AAD99A998
:10548000890F8EAF81E08FAF9EAD89A9981708F084
:105490001FAE9DAD8FAD982B9DAF9EAD99AB8AA1F0
:1054A0009AA5890F8AAB81E021968FAF21979AA99F
:1054B0008AA1981718F021961FAE21979DAD8AA951
:1054C000980F22969FAF229791E023969FAF239744
:1054D00022968FAD22979AA9891718F023961FAEAE
:1054E000239721968FAD219723969FAD2397892BE4
:1054F00021968FAF219722968FAD22978AAB9BA1E1
:105500008BA5980F9BAB91E024969FAF24978BA916
:105510009BA1891718F024961FAE249721968FAD72
:1055200021979BA9890F25968FAF259781E0269615
:105530008FAF269725969FAD25978BA9981718F0C2
:1055400026961FAE269724969FAD249726968FAD5C
:105550002697982B24969FAF249725969FAD259745
:105560009BAB8CA19CA5890F8CAB81E027968FAF5C
:1055700027979CA98CA1981718F027961FAE2797FC
:1055800024969FAD24978CA9980F28969FAF2897B3
:1055900091E029969FAF299728968FAD28979CA9CF
:1055A000891718F029961FAE299727968FAD279750
:1055B00029969FAD2997892B27968FAF27972896F5
:1055C0008FAD28978CAB9DA18DA5980F9DAB27968D
:1055D0008FAD27979DA9890F8DAB8EA58E8B9FA52B
:1055E0009F8B88A9888F99A9998F8AA98A8F9BA94F
:1055F0009B8F8CA98C8F9DA99D8F8A859B85AC855F
:10560000BD852AE030E040E050E0BC01CD010E94C1
:105610005032DC01CB019C01AD01DA01C901BB0FA5
:10562000880B982FDC012E873F87488B598B8A8BFC
:105630008B8B8C8B8D8B8E899E85890F2A968FAF55
:105640002A9781E062968FAF62972A969FAD2A973C
:105650008E89981718F062961FAE62979F898F8582
:10566000980F2B969FAF2B9791E063969FAF639710
:105670002B968FAD2B979F89891718F063961FAED5
:10568000639762968FAD62972B969FAD2B97890F8C
:1056900064968FAF649781E065968FAF6597649647
:1056A0009FAD64972B968FAD2B97981718F0659642
:1056B0001FAE659763969FAD639765968FAD6597AF
:1056C000982B63969FAF639764969FAD64972B96D4
:1056D0009FAF2B97888D9889890F2C968FAF2C9729
:1056E00081E066968FAF66972C969FAD2C97888D3C
:1056F000981718F066961FAE669763969FAD6397EE
:105700002C968FAD2C97980F67969FAF679791E077
:1057100068969FAF689767968FAD67972C969FADF9
:105720002C97891718F068961FAE689766968FAD0C
:10573000669768969FAD6897892B66968FAF669738
:1057400067968FAD67972C968FAF2C97998D898927
:10575000980F2D969FAF2D9791E069969FAF69970F
:105760002D968FAD2D97998D891718F069961FAEDC
:10577000699766968FAD66972D969FAD2D97890F89
:105780006A968FAF6A9781E06B968FAF6B976A9638
:105790009FAD6A972D968FAD2D97981718F06B9641
:1057A0001FAE6B9769969FAD69976B968FAD6B97A0
:1057B000982B69969FAF69976A969FAD6A972D96C9
:1057C0009FAF2D978A8D9A89890F2E968FAF2E972E
:1057D00081E06C968FAF6C972E969FAD2E978A8D39
:1057E000981718F06C961FAE6C9769969FAD6997E5
:1057F0002E968FAD2E97980F6D969FAF6D9791E077
:105800006E969FAF6E976D968FAD6D972E969FADEE
:105810002E97891718F06E961FAE6E976C968FAD07
:105820006C976E969FAD6E97892B6C968FAF6C9729
:105830006D968FAD6D972E968FAF2E979B8D8B8922
:10584000980F2F969FAF2F9791E06F969FAF6F970E
:105850002F968FAD2F979B8D891718F06F961FAEDF
:105860006F976C968FAD6C972F969FAD2F97890F82
:10587000A0968FAFA09781E0A1968FAFA197A09639
:105880009FADA0972F968FAD2F97981718F0A196E0
:105890001FAEA1976F969FAD6F97A1968FADA19701
:1058A000982B6F969FAF6F97A0969FADA0972F965E
:1058B0009FAF2F978C8D9C89890F60968FAF6097D3
:1058C00081E0A2968FAFA29760969FAD60978C8D76
:1058D000981718F0A2961FAEA2976F969FAD6F977C
:1058E00060968FAD6097980FA3969FAFA39791E0B6
:1058F000A4969FAFA497A3968FADA39760969FADF4
:105900006097891718F0A4961FAEA497A2968FAD42
:10591000A297A4969FADA497892BA2968FAFA2972A
:10592000A3968FADA39760968FAF60979D8D8D895D
:10593000980F61969FAF6197A2968FADA2976196DF
:105940009FAD6197890F61968FAF61972A968FAD52
:105950002A978A832B969FAD2B979B832C968FAD8E
:105960002C978C832D969FAD2D979D832E968FAD72
:105970002E978E832F969FAD2F979F8360968FAD26
:105980006097888761969FAD619799878A859B8587
:10599000AC85BD852AE030E040E050E0BC01CD019F
:1059A0000E945032DA01C9018A879B87AC87BD8784
:1059B00089818F5F89838A859B85AC85BD85181613
:1059C00019061A061B060CF4D5CC61C0AA80BB8050
:1059D000CC80DD80EE80FF80088519852A2D3B2D47
:1059E0004C2D5D2D6E2D7F2D802F912F0F2EFAE0E7
:1059F000AF2EF02DBB24CC24DD24EE24FF2400E0C8
:105A000010E00E946907A22EB32EC42ED52EE62EDA
:105A1000F72E082F192F2A2D3B2D4C2D5D2D6E2D85
:105A20007F2D802F912F822F805D0E94912FAA8041
:105A3000BB80CC80DD80EE80FF80088519852A2D13
:105A40003B2D4C2D5D2D6E2D7F2D802F912F0F2EF8
:105A5000FAE0AF2EF02DBB24CC24DD24EE24FF246D
:105A600000E010E00E94F400A22EB32EC42ED52E2A
:105A7000E62EF72E082F192FAA82BB82CC82DD8258
:105A8000EE82FF8208871987898181508983898105
:105A9000882309F09BCFCD59DF4F0FB6F894DEBFB6
:105AA0000FBECDBFCF91DF911F910F91FF90EF906F
:105AB000DF90CF90BF90AF900895DF93CF93CDB795
:105AC000DEB781E00E94EF2ECF91DF910895DF9342
:105AD000CF9300D00F92CDB7DEB78A836B838A81D4
