:100000000C942A000C943F000C943F000C943F0089
:100010000C943F000C943F000C943F000C943F0064
:100020000C943F000C943F000C943F000C943F0054
:100030000C943F000C943F000C943F000C943F0044
:100040000C943F000C943F000C943F000C943F0034
:100050000C943F0011241FBECFE5D8E0DEBFCDBF1A
:1000600010E0A0E6B0E0E8E6F9E002C005900D92ED
:10007000AC37B107D9F70E946F040C94B2040C940A
:100080000000DF93CF93CDB7DEB7EAE3F0E08FEF68
:100090008083E7E3F0E08FEF8083E4E3F0E08FEF2D
:1000A0008083E1E3F0E087E08083CF91DF910895E2
:1000B000DF93CF93CDB7DEB72B970FB6F894DEBFA3
:1000C0000FBECDBF8A836B8319828A818830D8F5B1
:1000D0008B81282F30E03B872A878A859B85009774
:1000E00031F02A853B8521303105B1F029C0ABE3E1
:1000F000B0E0EBE3F0E08081482F8A81282F30E0E8
:1001000081E090E0022E02C0880F991F0A94E2F766
:10011000809584238C93F8C0ABE3B0E0EBE3F0E090
:100120008081482F8A81282F30E081E090E0022EE4
:1001300002C0880F991F0A94E2F7842B8C93E4C0C5
:1001400081E08983E1C08A81883008F445C08A81D2
:10015000803108F041C08B81282F30E03987288713
:1001600088859985009731F02885398521303105BA
:10017000C9F02FC0A8E3B0E0E8E3F0E08081482FA9
:100180008A81882F90E09C012770307081E090E098
:10019000022E02C0880F991F0A94E2F780958423EB
:1001A0008C93B2C0A8E3B0E0E8E3F0E08081482F90
:1001B0008A81882F90E09C012770307081E090E068
:1001C000022E02C0880F991F0A94E2F7842B8C93A9
:1001D0009BC081E0898398C08A81803108F445C042
:1001E0008A81883108F041C08B81282F30E03F831D
:1001F0002E838E819F81009731F02E813F812130A7
:100200003105C9F02FC0A5E3B0E0E5E3F0E080815F
:10021000482F8A81882F90E09C012F70307081E0F8
:1002200090E0022E02C0880F991F0A94E2F7809591
:1002300084238C9369C0A5E3B0E0E5E3F0E080811E
:10024000482F8A81882F90E09C012F70307081E0C8
:1002500090E0022E02C0880F991F0A94E2F7842BC7
:100260008C9352C081E089834FC08A81883108F421
:1002700049C08A81803208F045C08B81282F30E048
:100280003D832C838C819D81009731F02C813D81B1
:1002900021303105D9F033C0A2E3B0E0E2E3F0E071
:1002A0008081482F8A8198E1692F0E94A604892FB6
:1002B000282F30E081E090E0022E02C0880F991FC5
:1002C0000A94E2F7809584238C931EC0A2E3B0E0E9
:1002D000E2E3F0E08081482F8A8198E1692F0E9453
:1002E000A604892F282F30E081E090E0022E02C082
:1002F000880F991F0A94E2F7842B8C9305C081E044
:10030000898302C081E0898389812B960FB6F89496
:10031000DEBF0FBECDBFCF91DF910895DF93CF93A6
:1003200000D000D0CDB7DEB78A837C836B8319827F
:100330008B819C81009709F471C08A818830A0F478
:10034000E9E3F0E08081282F30E08A81882F90E077
:10035000A90102C0559547958A95E2F7CA018170B7
:10036000EB81FC8180835CC08A818830C8F08A81FF
:100370008031B0F4E6E3F0E08081282F30E08A811C
:10038000882F90E087709070A90102C0559547951D
:100390008A95E2F7CA018170EB81FC81808340C0BD
:1003A0008A818031C8F08A818831B0F4E3E3F0E0DB
:1003B0008081282F30E08A81882F90E08F709070A4
:1003C000A90102C0559547958A95E2F7CA01817047
:1003D000EB81FC81808324C08A818831E0F08A81AE
:1003E0008032C8F4E0E3F0E08081282F30E08A8199
:1003F00098E1692F0E94A604892F882F90E0A90117
:1004000002C0559547958A95E2F7CA018170EB8144
:10041000FC81808305C081E0898302C082E08983FA
:1004200089810F900F900F900F90CF91DF910895D9
:10043000DF93CF9300D0CDB7DEB789836A838981FC
:100440006A810E9458000F900F90CF91DF9108951C
:10045000DF93CF93CDB7DEB727970FB6F894DEBF03
:100460000FBECDBF9C838B837E836D834F831A82A7
:1004700019821DC08981282F30E08B819C81FC016D
:10048000E20FF31F40818981282F30E08D819E810A
:10049000FC01E20FF31F9081842F692F0E94580006
:1004A0008A838A81882339F489818F5F898399813E
:1004B0008F819817F8F28A8127960FB6F894DEBFDD
:1004C0000FBECDBFCF91DF910895DF93CF93CDB70E
:1004D000DEB762970FB6F894DEBF0FBECDBF8C8734
:1004E0006D871982CE0102969F878E87E2E7F0E042
:1004F000F98BE88BFAE0FA8BE889F9890080888922
:1005000099890196998B888BEE85FF8500828E856F
:100510009F8501969F878E879A8991509A8BEA8949
:10052000EE2351F78C85823098F58D858A3090F5D1
:100530008C85282F30E0C901880F991F880F991FDB
:10054000880F991F820F931FFC01E859FF4F80818C
:10055000882371F48D85282F30E0CE010296FC01AE
:10056000E20FF31F90818C85692F0E94D40212C084
:100570008D85282F30E0CE010296FC01E20FF31F9B
:100580008081982F90958C85692F0E94D40202C09B
:1005900081E08983898162960FB6F894DEBF0FBE31
:1005A000CDBFCF91DF910895DF93CF93CDB7DEB765
:1005B0002A970FB6F894DEBF0FBECDBF89876A8732
:1005C00019821BC08981482F50E08A85282F30E08E
:1005D0008981882F90E0B90102C0759567958A9549
:1005E000E2F7CB01282F2170CE010296FC01E40F27
:1005F000F51F208389818F5F89838981873010F37C
:100600008985282F30E0C901880F991F880F991F0D
:10061000880F991F820F931F805A9F4F9E012E5F54
:100620003F4FB90147E00E9428022A960FB6F8947E
:10063000DEBF0FBECDBFCF91DF910895DF93CF9383
:1006400000D0CDB7DEB78A8319828A818230E0F587
:100650008A81282F30E0C901880F991F880F991FC0
:10066000880F991F820F931FFC01E859FF4F80816B
:100670008823A9F48A81282F30E0C901880F991FA7
:10068000880F991F880F991F820F931FFC01E9594A
:10069000FF4F808160E00E945800898317C08A81E3
:1006A000282F30E0C901880F991F880F991F880FE4
:1006B000991F820F931FFC01E959FF4F808161E070
:1006C0000E945800898302C081E0898389810F904C
:1006D0000F90CF91DF910895DF93CF9300D0CDB7E6
:1006E000DEB78A8319828A818230E0F58A81282FD9
:1006F00030E0C901880F991F880F991F880F991F33
:10070000820F931FFC01E859FF4F80818823A9F4D1
:100710008A81282F30E0C901880F991F880F991FFF
:10072000880F991F820F931FFC01E959FF4F8081A9
:1007300061E00E945800898317C08A81282F30E029
:10074000C901880F991F880F991F880F991F820F61
:10075000931FFC01E959FF4F808160E00E9458001F
:10076000898302C081E0898389810F900F90CF91A6
:10077000DF910895DF93CF93CDB7DEB764970FB6BF
:10078000F894DEBF0FBECDBF81E063E00E9465023A
:1007900080E060E00E94650286E090E0A0E0B0E0CA
:1007A000898B9A8BAB8BBC8B28C080ED97E0A0E047
:1007B000B0E08D879E87AF87B88B0CC000008D8519
:1007C0009E85AF85B8890197A109B1098D879E875C
:1007D000AF87B88B8D859E85AF85B8890097A105B9
:1007E000B10561F789899A89AB89BC890197A1090B
:1007F000B109898B9A8BAB8BBC8B89899A89AB8920
:10080000BC890097A105B10581F682E090E09C8744
:100810008B8757C09B8581E0692F0E94650289E024
:1008200090E09A87898743C0998580E0692F0E946C
:10083000650286E090E0A0E0B0E08D839E83AF8308
:10084000B88728C080ED97E0A0E0B0E089839A8364
:10085000AB83BC830CC0000089819A81AB81BC81D1
:100860000197A109B10989839A83AB83BC838981EC
:100870009A81AB81BC810097A105B10561F78D819B
:100880009E81AF81B8850197A109B1098D839E83AF
:10089000AF83B8878D819E81AF81B8850097A10510
:1008A000B10581F689859A8501979A878987898517
:1008B0009A8599230CF0B8CF8B859C8501979C87EE
:1008C0008B878B859C8599230CF0A4CF64960FB6FB
:1008D000F894DEBF0FBECDBFCF91DF910895DF93B7
:1008E000CF93CDB7DEB70E94410080E060E00E9468
:1008F000580081E060E00E94580082E060E00E94C1
:10090000580080E00E941E0381E00E941E0382E0E6
:1009100061E00E9458000E94BA0382E060E00E94F9
:10092000580081E061E00E9458000E94BA0381E013
:1009300060E00E94580080E061E00E9458000E9440
:10094000BA0380E060E00E945800E1CF991B79E093
:1009500004C0991F961708F0961B881F7A95C9F74F
:0809600080950895F894FFCF83
:1009680008090A0B0C0D0E0F00101112131415169E
:0C09780017013F065B4F666D7D077F6F27
:00000001FF
