:100000000C942A000C9443070C9470070C949D07E1
:100010000C9447000C9447000C9447000C94470044
:100020000C9447000C9447000C9447000C94470034
:100030000C9447000C9447000C9447000C94470024
:100040000C9447000C9447000C9447000C94470014
:100050000C94470011241FBECFE5D8E0DEBFCDBF12
:1000600010E0A0E6B0E0ECE3FEE302C005900D92E4
:10007000AA3DB107D9F710E0AAEDB0E001C01D928A
:10008000AC3EB107E1F70E94B31E0C941C1F0C9408
:100090000000EF92FF920F931F937B018C0120E0F1
:1000A00030E040E05FE40E94490388238CF0C801FF
:1000B000B70120E030E040E05FE40E94C1010E940F
:1000C000A9039B01AC01205030404040504806C07D
:1000D000C801B7010E94A9039B01AC01B901CA0183
:1000E0001F910F91FF90EF900895A0E0B0E0EBE733
:1000F000F0E00C94E51EDC012B01FA019C9192309A
:1001000008F439C1EB018881823008F433C194309E
:1001100069F4843009F02FC111969C91119789815F
:10012000981709F428C1A0E6B0E025C1843009F48D
:1001300021C18230A9F4923009F01DC19A01AD01AC
:1001400088E0EA010990AE01E90109929E0181501F
:10015000C1F7E201898111969C918923818308C1AD
:10016000923009F407C112962D903C901397EB0141
:100170008A819B811496AD90BD90CD90DC901797AD
:10018000EC80FD800E811F819101281B390BB90184
:1001900037FF04C066277727621B730B6032710537
:1001A0000CF061C0121613066CF537014801062EDB
:1001B00004C096948794779467940A94D2F721E0C8
:1001C00030E040E050E004C0220F331F441F551FB1
:1001D0006A95D2F721503040404050402E213F21B7
:1001E00040235123211531054105510521F021E01E
:1001F00030E040E050E079018A01E628F72808293C
:1002000019293CC0232BD1F1260E371E350146019A
:10021000062E04C096948794779467940A94D2F734
:1002200021E030E040E050E004C0220F331F441FC3
:10023000551F6A95D2F721503040404050402A2146
:100240003B214C215D21211531054105510521F04E
:1002500021E030E040E050E059016A01A628B728CB
:10026000C828D9280BC0821593052CF01C01AA249C
:10027000BB24650103C0EE24FF24870111969C91E5
:10028000D20111968C91981709F445C0992339F041
:10029000A80197012A193B094C095D0906C0A6016E
:1002A00095012E193F09400B510B57FD08C01182D3
:1002B0003382228224833583468357831DC081E0A5
:1002C00081833382228288279927DC01821B930B4A
:1002D000A40BB50B84839583A683B7830DC0220F2F
:1002E000331F441F551F24833583468357838281E0
:1002F000938101979383828324813581468157813D
:10030000DA01C9010197A109B1098F5F9F4FAF4F72
:10031000BF4328F30BC0918333822282EA0CFB1C7B
:100320000C1D1D1DE482F5820683178383E0808304
:10033000248135814681578157FF1AC0C901AA27F8
:1003400097FDA095BA2F81709070A070B0705695EF
:10035000479537952795822B932BA42BB52B848318
:100360009583A683B7838281938101969383828349
:10037000DF0101C0D201CD01CDB7DEB7E2E10C94BF
:10038000011FA0E2B0E0E7ECF1E00C94F11E6983FC
:100390007A838B839C832D833E834F835887E9E048
:1003A000EE2EF12CEC0EFD1ECE010196B7010E943F
:1003B000D2048E010F5E1F4FCE010596B8010E9438
:1003C000D2048A8991E089278A8BC701B801AE01DE
:1003D000475E5F4F0E9475000E94FD03A096E6E015
:1003E0000C940D1FA0E2B0E0E8EFF1E00C94F11ED8
:1003F00069837A838B839C832D833E834F835887C5
:10040000F9E0EF2EF12CEC0EFD1ECE010196B701A6
:100410000E94D2048E010F5E1F4FCE010596B801D7
:100420000E94D204C701B801AE01475E5F4F0E942F
:1004300075000E94FD03A096E6E00C940D1FA0E25B
:10044000B0E0E5E2F2E00C94E51E69837A838B83E9
:100450009C832D833E834F835887CE010196BE0136
:10046000675F7F4F0E94D204CE010596BE016F5E8A
:100470007F4F0E94D2049985923088F0898982301A
:10048000C8F0943019F4823051F404C0843029F457
:10049000923081F480E690E0C6C0923049F420E0CA
:1004A0009A858A89981321E02A87CE010996BBC0D4
:1004B000823049F420E09A858A89981321E02A8BBA
:1004C000CE014196B0C02D843E844F8458886D88FB
:1004D0007E888F88988CEE24FF248701AA24BB2471
:1004E000650140E050E060E070E0E0E0F0E0C10174
:1004F00081709070892BE9F0E60CF71C081D191D1E
:100500009A01AB012A0D3B1D4C1D5D1D80E090E062
:10051000A0E0B0E0E614F7040805190520F481E036
:1005200090E0A0E0B0E0BA01A901480F591F6A1F8E
:100530007B1FAA0CBB1CCC1CDD1C97FE08C081E0F5
:1005400090E0A0E0B0E0A82AB92ACA2ADB2A3196B6
:10055000E032F10549F0660C771C881C991C569412
:10056000479437942794C3CFFA85EA892B893C892D
:100570008B859C85280F391F2E5F3F4F17C0CA01FE
:1005800081709070892B61F016950795F794E79428
:1005900080E090E0A0E0B0E8E82AF92A0A2B1B2BC3
:1005A00076956795579547952F5F3F4F77FDE7CF36
:1005B0000CC0440F551F661F771F17FD4160EE0CDE
:1005C000FF1C001F111F21503040403090E05907A0
:1005D00090E0690790E4790760F32B8F3C8FDB0193
:1005E000CA018F779070A070B07080349105A1051A
:1005F000B10561F447FD0AC0E114F10401051105DC
:1006000029F0405C5F4F6F4F7F4F40781A8EFE1786
:1006100011F081E08A8F4D8F5E8F6F8F78A383E01A
:10062000898FCE0149960E94FD03A096E2E10C94C9
:10063000011FA8E1B0E0EFE1F3E00C94F11E698343
:100640007A838B839C832D833E834F83588789E0F5
:10065000E82EF12CEC0EFD1ECE010196B7010E9492
:10066000D2048E010F5E1F4FCE010596B8010E9485
:10067000D2048985823040F08989823028F0C70110
:10068000B8010E944A0501C08FEF6896E6E00C941D
:100690000D1FA8E1B0E0EFE4F3E00C94F11E6983D4
:1006A0007A838B839C832D833E834F83588789E095
:1006B000E82EF12CEC0EFD1ECE010196B7010E9432
:1006C000D2048E010F5E1F4FCE010596B8010E9425
:1006D000D2048985823040F08989823028F0C701B0
:1006E000B8010E944A0501C08FEF6896E6E00C94BD
:1006F0000D1FA8E1B0E0EFE7F3E00C94F11E698371
:100700007A838B839C832D833E834F83588789E034
:10071000E82EF12CEC0EFD1ECE010196B7010E94D1
:10072000D2048E010F5E1F4FCE010596B8010E94C4
:10073000D2048985823040F08989823028F0C7014F
:10074000B8010E944A0501C081E06896E6E00C9479
:100750000D1FACE0B0E0EFEAF3E00C94F51E698306
:100760007A838B839C83CE010196BE016B5F7F4FA2
:100770000E94D2048D81823061F1823050F1843048
:1007800021F48E81882351F12EC02F81388537FDC9
:1007900020C06E812F3131051CF06623F9F023C093
:1007A0008EE190E0821B930B29853A854B855C8511
:1007B00004C056954795379527958A95D2F76623B5
:1007C000B1F050954095309521953F4F4F4F5F4F79
:1007D0000EC020E030E040E050E009C02FEF3FEFD6
:1007E0004FEF5FE704C020E030E040E050E8B9019F
:1007F000CA012C96E2E00C94111FDF92EF92FF9257
:100800000F931F93FC01E480F58006811781D1804E
:100810008081823048F480E090E0A0E1B0E0E82AF6
:10082000F92A0A2B1B2BA5C0843009F49FC0823003
:1008300021F4EE24FF24870105C0E114F104010531
:10084000110519F4E0E0F0E096C0628173819FEF3A
:10085000623879070CF05BC022E83FEF261B370BAC
:100860002A3131052CF020E030E040E050E02AC091
:10087000B801A701022E04C0769567955795479554
:100880000A94D2F781E090E0A0E0B0E004C0880FC5
:10089000991FAA1FBB1F2A95D2F70197A109B10979
:1008A0008E219F21A023B1230097A105B10521F03E
:1008B00081E090E0A0E0B0E09A01AB01282B392B59
:1008C0004A2B5B2BDA01C9018F779070A070B07052
:1008D00080349105A105B10539F427FF09C0205CDA
:1008E0003F4F4F4F5F4F04C0215C3F4F4F4F5F4F13
:1008F000E0E0F0E02030A0E03A07A0E04A07A0E402
:100900005A0710F0E1E0F0E079018A0127C0603871
:10091000710564F5FB01E158FF4FD801C7018F77DE
:100920009070A070B07080349105A105B10539F4C4
:10093000E7FE0DC080E490E0A0E0B0E004C08FE3EB
:1009400090E0A0E0B0E0E80EF91E0A1F1B1F17FFA1
:1009500005C016950795F794E794319687E01695AC
:100960000795F794E7948A95D1F705C0EE24FF2404
:100970008701EFEFF0E06E2F679566276795902F60
:100980009F77D794DD24D7948E2F8695492F462BB9
:10099000582F5D29B701CA011F910F91FF90EF9069
:1009A000DF900895FC01DB01408151812281622F9B
:1009B0006F7770E0221F2227221F9381892F880FD3
:1009C000822B282F30E0991F9927991F11969C930D
:1009D000119721153105A9F54115510561057105DD
:1009E00011F482E037C082E89FEF13969C938E93B8
:1009F00012979A01AB0167E0220F331F441F551F66
:100A00006A95D1F783E08C930DC0220F331F441FEA
:100A1000551F12968D919C911397019713969C9355
:100A20008E931297203080E0380780E0480780E4FA
:100A3000580758F314962D933D934D935C93179755
:100A400008952F3F310579F4411551056105710570
:100A500019F484E08C93089564FF03C081E08C93C3
:100A600012C01C9210C02F57304013963C932E9307
:100A7000129783E08C9387E0440F551F661F771F02
:100A80008A95D1F7706414964D935D936D937C9322
:100A9000179708951F93DC01FB019C91923008F495
:100AA00047C08081823008F443C0943051F41196DD
:100AB0001C91843099F58181682F70E0611B710968
:100AC0003FC0843021F0923031F48230B9F181811D
:100AD000882389F12DC011961C9111978230F1F075
:100AE00081811817D9F412962D913C911397828128
:100AF00093818217930794F028173907BCF0149656
:100B00008D919D910D90BC91A02D248135814681C0
:100B10005781281739074A075B0718F4112341F05A
:100B20000AC082179307A407B50740F4112319F0F0
:100B300061E070E005C06FEF7FEF02C060E070E041
:100B4000CB011F910895DF93CF93CDB7DEB7AFE50B
:100B5000B0E0EFE5F0E0808180688C93CF91DF9189
:100B60000895DF93CF93CDB7DEB7AFE5B0E0EFE503
:100B7000F0E080818F778C93CF91DF910895DF93A0
:100B8000CF930F92CDB7DEB78983ABE5B0E0EBE54D
:100B9000F0E08081482F8981282F30E081E090E0CB
:100BA000022E02C0880F991F0A94E2F7842B8C93BF
:100BB0000F90CF91DF910895DF93CF930F92CDB730
:100BC000DEB78983ABE5B0E0EBE5F0E08081482F4C
:100BD0008981282F30E081E090E0022E02C0880F4A
:100BE000991F0A94E2F7809584238C930F90CF91FC
:100BF000DF910895DF93CF9300D00F92CDB7DEB78A
:100C00008A836B8319828A81863009F04BC08B817D
:100C1000813079F4A5E5B0E0E5E5F0E080818E7FF4
:100C20008C93A5E5B0E0E5E5F0E080818D7F8C93C5
:100C3000A6C08B81823079F4A5E5B0E0E5E5F0E06F
:100C4000808181608C93A5E5B0E0E5E5F0E08081EE
:100C50008D7F8C9394C08B81833079F4A5E5B0E0CF
:100C6000E5E5F0E080818E7F8C93A5E5B0E0E5E5D9
:100C7000F0E0808182608C9382C08B81843079F433
:100C8000A5E5B0E0E5E5F0E0808181608C93A5E525
:100C9000B0E0E5E5F0E0808182608C9370C081E097
:100CA00089836DC08A81873009F04BC08B81813088
:100CB00079F4A5E5B0E0E5E5F0E080818B7F8C93E9
:100CC000A5E5B0E0E5E5F0E08081877F8C9357C033
:100CD0008B81823079F4A5E5B0E0E5E5F0E0808134
:100CE00084608C93A5E5B0E0E5E5F0E08081877F46
:100CF0008C9345C08B81833079F4A5E5B0E0E5E5C0
:100D0000F0E080818B7F8C93A5E5B0E0E5E5F0E035
:100D1000808188608C9333C08B81843079F4A5E521
:100D2000B0E0E5E5F0E0808184608C93A5E5B0E07B
:100D3000E5E5F0E0808188608C9321C081E08983C3
:100D40001EC08A818530C9F48B81833041F4A4E5CB
:100D5000B0E0E4E5F0E080818F7B8C9310C08B8164
:100D6000843041F4A4E5B0E0E4E5F0E08081806403
:100D70008C9305C081E0898302C081E089838981E9
:100D80000F900F900F90CF91DF910895DF93CF9345
:100D900000D0CDB7DEB789838981863091F4EAE54A
:100DA000F0E080818295869586958370882F90E00B
:100DB00081709070882319F081E08A8328C01A829C
:100DC00026C08981873069F4EAE5F0E08081881FD8
:100DD0008827881F813019F481E08A8318C01A821D
:100DE00016C08981853089F4EAE5F0E0808182953A
:100DF00086958770882F90E081709070882319F015
:100E000081E08A8304C01A8202C08FEF8A838A81BC
:100E10000F900F90CF91DF910895DF93CF9300D083
:100E2000CDB7DEB79A83898389819A819093DB005D
:100E30008093DA000F900F90CF91DF910895DF93A8
:100E4000CF9300D0CDB7DEB79A83898389819A8109
:100E50009093DD008093DC000F900F90CF91DF9195
:100E60000895DF93CF9300D0CDB7DEB79A838983FF
:100E700089819A819093DF008093DE000F900F901C
:100E8000CF91DF9108951F920F920FB60F92112408
:100E90002F933F934F935F936F937F938F939F9382
:100EA000AF93BF93EF93FF93DF93CF93CDB7DEB7AD
:100EB000E091DA00F091DB000995CF91DF91FF918D
:100EC000EF91BF91AF919F918F917F916F915F91C2
:100ED0004F913F912F910F900FBE0F901F9018953B
:100EE0001F920F920FB60F9211242F933F934F939F
:100EF0005F936F937F938F939F93AF93BF93EF9382
:100F0000FF93DF93CF93CDB7DEB7E091DC00F09194
:100F1000DD000995CF91DF91FF91EF91BF91AF91E6
:100F20009F918F917F916F915F914F913F912F9101
:100F30000F900FBE0F901F9018951F920F920FB633
:100F40000F9211242F933F934F935F936F937F934F
:100F50008F939F93AF93BF93EF93FF93DF93CF93C1
:100F6000CDB7DEB7E091DE00F091DF000995CF91BB
:100F7000DF91FF91EF91BF91AF919F918F917F9101
:100F80006F915F914F913F912F910F900FBE0F90F6
:100F90001F901895DF93CF93CDB7DEB7EAE3F0E06B
:100FA0008FEF8083E7E3F0E08FEF8083E4E3F0E00E
:100FB0008FEF8083E1E3F0E08FEF8083CF91DF91CB
:100FC0000895DF93CF930F92CDB7DEB78983EBE31C
:100FD000F0E090818981981729F4EAE3F0E08FEF3F
:100FE000808320C0E8E3F0E090818981981729F49C
:100FF000E7E3F0E08FEF808315C0E5E3F0E0908158
:101000008981981729F4E4E3F0E08FEF80830AC028
:10101000E2E3F0E090818981981721F4E1E3F0E0C8
:101020008FEF80830F90CF91DF910895DF93CF935F
:10103000CDB7DEB72B970FB6F894DEBF0FBECDBF8E
:101040008A836B8319828A818830D8F58B81282F17
:1010500030E03B872A878A859B85009731F02A8577
:101060003B8521303105B1F029C0ABE3B0E0EBE3C3
:10107000F0E08081482F8A81282F30E081E090E0E5
:10108000022E02C0880F991F0A94E2F780958423EC
:101090008C93F8C0ABE3B0E0EBE3F0E08081482F45
:1010A0008A81282F30E081E090E0022E02C0880F74
:1010B000991F0A94E2F7842B8C93E4C081E0898322
:1010C000E1C08A81883008F445C08A81803108F007
:1010D00041C08B81282F30E0398728878885998502
:1010E000009731F02885398521303105C9F02FC0AE
:1010F000A8E3B0E0E8E3F0E08081482F8A81882F00
:1011000090E09C012770307081E090E0022E02C0D8
:10111000880F991F0A94E2F7809584238C93B2C0BC
:10112000A8E3B0E0E8E3F0E08081482F8A81882FCF
:1011300090E09C012770307081E090E0022E02C0A8
:10114000880F991F0A94E2F7842B8C939BC081E04F
:10115000898398C08A81803108F445C08A818831AA
:1011600008F041C08B81282F30E03F832E838E8191
:101170009F81009731F02E813F8121303105C9F0E8
:101180002FC0A5E3B0E0E5E3F0E08081482F8A813D
:10119000882F90E09C012F70307081E090E0022E4B
:1011A00002C0880F991F0A94E2F7809584238C93DC
:1011B00069C0A5E3B0E0E5E3F0E08081482F8A81D3
:1011C000882F90E09C012F70307081E090E0022E1B
:1011D00002C0880F991F0A94E2F7842B8C9352C0A7
:1011E00081E089834FC08A81883108F449C08A81AF
:1011F000803208F045C08B81282F30E03D832C835E
:101200008C819D81009731F02C813D812130310509
:10121000D9F033C0A2E3B0E0E2E3F0E08081482FF0
:101220008A8198E1692F0E94D91E892F282F30E0EA
:1012300081E090E0022E02C0880F991F0A94E2F725
:10124000809584238C931EC0A2E3B0E0E2E3F0E03B
:101250008081482F8A8198E1692F0E94D91E892FA9
:10126000282F30E081E090E0022E02C0880F991F05
:101270000A94E2F7842B8C9305C081E0898302C035
:1012800081E0898389812B960FB6F894DEBF0FBE6B
:10129000CDBFCF91DF910895DF93CF9300D000D0E1
:1012A000CDB7DEB78A837C836B8319828B819C8167
:1012B000009709F471C08A818830A0F4E9E3F0E076
:1012C0008081282F30E08A81882F90E0A90102C018
:1012D000559547958A95E2F7CA018170EB81FC81AB
:1012E00080835CC08A818830C8F08A818031B0F404
:1012F000E6E3F0E08081282F30E08A81882F90E0BB
:1013000087709070A90102C0559547958A95E2F7BC
:10131000CA018170EB81FC81808340C08A81803169
:10132000C8F08A818831B0F4E3E3F0E08081282FAF
:1013300030E08A81882F90E08F709070A90102C000
:10134000559547958A95E2F7CA018170EB81FC813A
:10135000808324C08A818831E0F08A818032C8F499
:10136000E0E3F0E08081282F30E08A8198E1692F66
:101370000E94D91E892F882F90E0A90102C055959F
:1013800047958A95E2F7CA018170EB81FC818083E1
:1013900005C081E0898302C082E0898389810F9042
:1013A0000F900F900F90CF91DF910895DF93CF931F
:1013B00000D0CDB7DEB789836A8389816A810E94B4
:1013C00016080F900F90CF91DF910895DF93CF9380
:1013D000CDB7DEB727970FB6F894DEBF0FBECDBFEF
:1013E0009C838B837E836D834F831A8219821DC0F9
:1013F0008981282F30E08B819C81FC01E20FF31F53
:1014000040818981282F30E08D819E81FC01E20F8F
:10141000F31F9081842F692F0E9416088A838A8186
:10142000882339F489818F5F898399818F81981707
:10143000F8F28A8127960FB6F894DEBF0FBECDBFB3
:10144000CF91DF910895DF93CF93CDB7DEB7A1970A
:101450000FB6F894DEBF0FBECDBF89A388E161E06F
:101460000E94160889A1869586958695882F90E01A
:10147000A0E0B0E08D8F9E8FAF8FB8A328C080ED25
:1014800097E0A0E0B0E0898F9A8FAB8FBC8F0CC043
:101490000000898D9A8DAB8DBC8D0197A109B10992
:1014A000898F9A8FAB8FBC8F898D9A8DAB8DBC8DB8
:1014B0000097A105B10561F78D8D9E8DAF8DB8A107
:1014C0000197A109B1098D8F9E8FAF8FB8A38D8D24
:1014D0009E8DAF8DB8A10097A105B10581F688E179
:1014E00060E00E94160889E161E00E94160889A167
:1014F000869586958695882F90E0A0E0B0E08D8B4C
:101500009E8BAF8BB88F28C080ED97E0A0E0B0E055
:10151000898B9A8BAB8BBC8B0CC0000089899A8914
:10152000AB89BC890197A109B109898B9A8BAB8BD7
:10153000BC8B89899A89AB89BC890097A105B105C3
:1015400061F78D899E89AF89B88D0197A109B1098D
:101550008D8B9E8BAF8BB88F8D899E89AF89B88D0F
:101560000097A105B10581F689E160E00E941608A7
:101570008AE161E00E94160889A186958695869584
:10158000882F90E0A0E0B0E08D879E87AF87B88B72
:1015900028C080ED97E0A0E0B0E089879A87AB870C
:1015A000BC870CC0000089859A85AB85BC850197F6
:1015B000A109B10989879A87AB87BC8789859A85F4
:1015C000AB85BC850097A105B10561F78D859E852A
:1015D000AF85B8890197A109B1098D879E87AF872B
:1015E000B88B8D859E85AF85B8890097A105B1051B
:1015F00081F68AE160E00E9416088BE161E00E94BA
:10160000160889A1869586958695882F90E0A0E09A
:10161000B0E08D839E83AF83B88728C080ED97E0CC
:10162000A0E0B0E089839A83AB83BC830CC0000048
:1016300089819A81AB81BC810197A109B109898314
:101640009A83AB83BC8389819A81AB81BC810097EB
:10165000A105B10561F78D819E81AF81B8850197A4
:10166000A109B1098D839E83AF83B8878D819E8147
:10167000AF81B8850097A105B10581F68BE160E0E7
:101680000E941608A1960FB6F894DEBF0FBECDBF1C
:10169000CF91DF910895DF93CF93CDB7DEB7A497B5
:1016A0000FB6F894DEBF0FBECDBF69A37AA38BA39C
:1016B0009CA38BE161E00E94160889A19AA1ABA1CD
:1016C000BCA1689412F8B695A7959795879516943E
:1016D000D1F78D8F9E8FAF8FB8A328C080ED97E094
:1016E000A0E0B0E0898F9A8FAB8FBC8F0CC0000058
:1016F000898D9A8DAB8DBC8D0197A109B109898F18
:101700009A8FAB8FBC8F898D9A8DAB8DBC8D0097D6
:10171000A105B10561F78D8D9E8DAF8DB8A10197A3
:10172000A109B1098D8F9E8FAF8FB8A38D8D9E8D2E
:10173000AF8DB8A10097A105B10581F68BE160E0FE
:101740000E9416088AE161E00E94160889A19AA108
:10175000ABA1BCA1689412F8B695A795979587950B
:101760001694D1F78D8B9E8BAF8BB88F28C080EDF0
:1017700097E0A0E0B0E0898B9A8BAB8BBC8B0CC060
:10178000000089899A89AB89BC890197A109B109AF
:10179000898B9A8BAB8BBC8B89899A89AB89BC89E5
:1017A0000097A105B10561F78D899E89AF89B88D34
:1017B0000197A109B1098D8B9E8BAF8BB88F8D8955
:1017C0009E89AF89B88D0097A105B10581F68AE1A0
:1017D00060E00E94160889E161E00E94160889A174
:1017E0009AA1ABA1BCA1689412F8B695A79597955C
:1017F00087951694D1F78D879E87AF87B88B28C0C1
:1018000080ED97E0A0E0B0E089879A87AB87BC873E
:101810000CC0000089859A85AB85BC850197A1091C
:10182000B10989879A87AB87BC8789859A85AB85FB
:10183000BC850097A105B10561F78D859E85AF85B3
:10184000B8890197A109B1098D879E87AF87B88BA9
:101850008D859E85AF85B8890097A105B10581F674
:1018600089E160E00E94160888E161E00E941608A4
:1018700089A19AA1ABA1BCA1689412F8B695A795CD
:10188000979587951694D1F78D839E83AF83B887FC
:1018900028C080ED97E0A0E0B0E089839A83AB8315
:1018A000BC830CC0000089819A81AB81BC81019707
:1018B000A109B10989839A83AB83BC8389819A8109
:1018C000AB81BC810097A105B10561F78D819E8137
:1018D000AF81B8850197A109B1098D839E83AF833C
:1018E000B8878D819E81AF81B8850097A105B1052C
:1018F00081F688E160E00E941608A4960FB6F8947D
:10190000DEBF0FBECDBFCF91DF910895DF93CF93A0
:10191000CDB7DEB7C954D0400FB6F894DEBF0FBEC6
:10192000CDBFFE01E75BFF4F808388E161E00E944D
:101930001608FE01E75BFF4F8081869586958695A8
:10194000FE01EB5BFF4F882F90E0A0E0B0E08083CA
:101950009183A283B3833CC0FE01EF5BFF4F80ED18
:1019600097E0A0E0B0E080839183A283B38313C0AB
:1019700000009E012F5B3F4FFE01EF5BFF4F808118
:101980009181A281B3810197A109B109F9018083F5
:101990009183A283B383FE01EF5BFF4F808191812E
:1019A000A281B3810097A105B10511F79E012B5BC0
:1019B0003F4FFE01EB5BFF4F80819181A281B3819C
:1019C0000197A109B109F90180839183A283B383AF
:1019D000FE01EB5BFF4F80819181A281B381009773
:1019E000A105B10509F0B8CF88E160E00E941608B2
:1019F00088E161E00E94160889E161E00E94160812
:101A0000FE01E75BFF4F8081869586958695882F3E
:101A100090E0A0E0B0E0FE01FD9680839183A28378
:101A2000B3832CC080ED97E0A0E0B0E089AF9AAF1F
:101A3000ABAFBCAF0CC0000089AD9AADABADBCADD7
:101A40000197A109B10989AF9AAFABAFBCAF89AD1E
:101A50009AADABADBCAD0097A105B10561F7FE0134
:101A6000FD9680819181A281B3810197A109B1097D
:101A7000FE01FD9680839183A283B383FE01FD96D0
:101A800080819181A281B3810097A105B10551F6B2
:101A900088E160E00E94160889E160E00E94160873
:101AA00089E161E00E941608FE01E75BFF4F80813B
:101AB000869586958695882F90E0A0E0B0E08DAB66
:101AC0009EABAFABB8AF28C080ED97E0A0E0B0E030
:101AD00089AB9AABABABBCAB0CC0000089A99AA98F
:101AE000ABA9BCA90197A109B10989AB9AABABAB72
:101AF000BCAB89A99AA9ABA9BCA90097A105B1055E
:101B000061F78DA99EA9AFA9B8AD0197A109B10947
:101B10008DAB9EABAFABB8AF8DA99EA9AFA9B8AD49
:101B20000097A105B10581F689E160E00E941608E1
:101B300089E161E00E9416088AE161E00E941608CE
:101B4000FE01E75BFF4F8081869586958695882FFD
:101B500090E0A0E0B0E08DA79EA7AFA7B8AB28C0EB
:101B600080ED97E0A0E0B0E089A79AA7ABA7BCA75B
:101B70000CC0000089A59AA5ABA5BCA50197A10939
:101B8000B10989A79AA7ABA7BCA789A59AA5ABA5B8
:101B9000BCA50097A105B10561F78DA59EA5AFA5D0
:101BA000B8A90197A109B1098DA79EA7AFA7B8ABA6
:101BB0008DA59EA5AFA5B8A90097A105B10581F691
:101BC00089E160E00E9416088AE160E00E94160840
:101BD0008AE161E00E941608FE01E75BFF4F808109
:101BE000869586958695882F90E0A0E0B0E08DA33D
:101BF0009EA3AFA3B8A728C080ED97E0A0E0B0E017
:101C000089A39AA3ABA3BCA30CC0000089A19AA18D
:101C1000ABA1BCA10197A109B10989A39AA3ABA368
:101C2000BCA389A19AA1ABA1BCA10097A105B10554
:101C300061F78DA19EA1AFA1B8A50197A109B10936
:101C40008DA39EA3AFA3B8A78DA19EA1AFA1B8A558
:101C50000097A105B10581F68AE160E00E941608AF
:101C60008AE161E00E9416088BE161E00E9416089B
:101C7000FE01E75BFF4F8081869586958695882FCC
:101C800090E0A0E0B0E08D8F9E8FAF8FB8A328C00A
:101C900080ED97E0A0E0B0E0898F9A8FAB8FBC8F8A
:101CA0000CC00000898D9A8DAB8DBC8D0197A10968
:101CB000B109898F9A8FAB8FBC8F898D9A8DAB8D2F
:101CC000BC8D0097A105B10561F78D8D9E8DAF8DFF
:101CD000B8A10197A109B1098D8F9E8FAF8FB8A3CD
:101CE0008D8D9E8DAF8DB8A10097A105B10581F6B0
:101CF0008AE160E00E9416088BE160E00E9416080D
:101D00008BE161E00E941608FE01E75BFF4F8081D6
:101D1000869586958695882F90E0A0E0B0E08D8B23
:101D20009E8BAF8BB88F28C080ED97E0A0E0B0E02D
:101D3000898B9A8BAB8BBC8B0CC0000089899A89EC
:101D4000AB89BC890197A109B109898B9A8BAB8BAF
:101D5000BC8B89899A89AB89BC890097A105B1059B
:101D600061F78D899E89AF89B88D0197A109B10965
:101D70008D8B9E8BAF8BB88F8D899E89AF89B88DE7
:101D80000097A105B10581F68BE160E00E9416087D
:101D900088E161E00E9416088BE161E00E9416086C
:101DA000FE01E75BFF4F8081869586958695882F9B
:101DB00090E0A0E0B0E08D879E87AF87B88B28C009
:101DC00080ED97E0A0E0B0E089879A87AB87BC8779
:101DD0000CC0000089859A85AB85BC850197A10957
:101DE000B10989879A87AB87BC8789859A85AB8536
:101DF000BC850097A105B10561F78D859E85AF85EE
:101E0000B8890197A109B1098D879E87AF87B88BE3
:101E10008D859E85AF85B8890097A105B10581F6AE
:101E200088E160E00E9416088BE160E00E941608DD
:101E300088E161E00E941608FE01E75BFF4F8081A8
:101E4000869586958695882F90E0A0E0B0E08D83FA
:101E50009E83AF83B88728C080ED97E0A0E0B0E014
:101E600089839A83AB83BC830CC0000089819A81EB
:101E7000AB81BC810197A109B10989839A83AB83A6
:101E8000BC8389819A81AB81BC810097A105B10592
:101E900061F78D819E81AF81B8850197A109B10954
:101EA0008D839E83AF83B8878D819E81AF81B885F6
:101EB0000097A105B10581F6C75BDF4F0FB6F89417
:101EC000DEBF0FBECDBFCF91DF910895DF93CF93DB
:101ED000CDB7DEB7C154D0400FB6F894DEBF0FBE09
:101EE000CDBFFE01EF5BFF4F808388E161E00E9480
:101EF00016088BE161E00E941608FE01EF5BFF4FC0
:101F00008081869586958695882F90E0A0E0B0E048
:101F1000FE01FD9680839183A283B3832CC080ED64
:101F200097E0A0E0B0E089AF9AAFABAFBCAF0CC018
:101F3000000089AD9AADABADBCAD0197A109B10967
:101F400089AF9AAFABAFBCAF89AD9AADABADBCAD0D
:101F50000097A105B10561F7FE01FD968081918191
:101F6000A281B3810197A109B109FE01FD96808389
:101F70009183A283B383FE01FD9680819181A2812A
:101F8000B3810097A105B10551F688E160E00E9498
:101F900016088BE160E00E9416088BE161E00E9468
:101FA0001608FE01EF5BFF4F80818695869586952A
:101FB000882F90E0A0E0B0E08DAB9EABAFABB8AFA8
:101FC00028C080ED97E0A0E0B0E089AB9AABABAB66
:101FD000BCAB0CC0000089A99AA9ABA9BCA9019708
:101FE000A109B10989AB9AABABABBCAB89A99AA9E2
:101FF000ABA9BCA90097A105B10561F78DA99EA960
:10200000AFA9B8AD0197A109B1098DAB9EABAFAB3C
:10201000B8AF8DA99EA9AFA9B8AD0097A105B1052C
:1020200081F68BE160E00E9416088BE161E00E947E
:1020300016088AE161E00E941608FE01EF5BFF4F7F
:102040008081869586958695882F90E0A0E0B0E007
:102050008DA79EA7AFA7B8AB28C080ED97E0A0E002
:10206000B0E089A79AA7ABA7BCA70CC0000089A5C0
:102070009AA5ABA5BCA50197A109B10989A79AA703
:10208000ABA7BCA789A59AA5ABA5BCA50097A10540
:10209000B10561F78DA59EA5AFA5B8A90197A109C6
:1020A000B1098DA79EA7AFA7B8AB8DA59EA5AFA57B
:1020B000B8A90097A105B10581F68BE160E00E9407
:1020C00016088AE160E00E9416088AE161E00E9439
:1020D0001608FE01EF5BFF4F8081869586958695F9
:1020E000882F90E0A0E0B0E08DA39EA3AFA3B8A797
:1020F00028C080ED97E0A0E0B0E089A39AA3ABA34D
:10210000BCA30CC0000089A19AA1ABA1BCA10197FE
:10211000A109B10989A39AA3ABA3BCA389A19AA1E0
:10212000ABA1BCA10097A105B10561F78DA19EA14E
:10213000AFA1B8A50197A109B1098DA39EA3AFA333
:10214000B8A78DA19EA1AFA1B8A50097A105B10523
:1021500081F68AE160E00E9416088AE161E00E944F
:10216000160889E161E00E941608FE01EF5BFF4F4F
:102170008081869586958695882F90E0A0E0B0E0D6
:102180008D8F9E8FAF8FB8A328C080ED97E0A0E021
:10219000B0E0898F9A8FAB8FBC8F0CC00000898D07
:1021A0009A8DAB8DBC8D0197A109B109898F9A8F4A
:1021B000AB8FBC8F898D9A8DAB8DBC8D0097A1059F
:1021C000B10561F78D8D9E8DAF8DB8A10197A109E5
:1021D000B1098D8F9E8FAF8FB8A38D8D9E8DAF8DE2
:1021E000B8A10097A105B10581F68AE160E00E94DF
:1021F000160889E160E00E94160889E161E00E940A
:102200001608FE01EF5BFF4F8081869586958695C7
:10221000882F90E0A0E0B0E08D8B9E8BAF8BB88FC5
:1022200028C080ED97E0A0E0B0E0898B9A8BAB8B63
:10223000BC8B0CC0000089899A89AB89BC89019745
:10224000A109B109898B9A8BAB8BBC8B89899A893F
:10225000AB89BC890097A105B10561F78D899E897D
:10226000AF89B88D0197A109B1098D8B9E8BAF8B7A
:10227000B88F8D899E89AF89B88D0097A105B1056A
:1022800081F689E160E00E94160889E161E00E9420
:10229000160888E161E00E941608FE01EF5BFF4F1F
:1022A0008081869586958695882F90E0A0E0B0E0A5
:1022B0008D879E87AF87B88B28C080ED97E0A0E020
:1022C000B0E089879A87AB87BC870CC000008985FE
:1022D0009A85AB85BC850197A109B10989879A8741
:1022E000AB87BC8789859A85AB85BC850097A1059E
:1022F000B10561F78D859E85AF85B8890197A109E4
:10230000B1098D879E87AF87B88B8D859E85AF85F8
:10231000B8890097A105B10581F689E160E00E94C6
:10232000160888E160E00E94160888E161E00E94DA
:102330001608FE01EF5BFF4F808186958695869596
:10234000882F90E0A0E0B0E08D839E83AF83B887B4
:1023500028C080ED97E0A0E0B0E089839A83AB834A
:10236000BC830CC0000089819A81AB81BC8101973C
:10237000A109B10989839A83AB83BC8389819A813E
:10238000AB81BC810097A105B10561F78D819E816C
:10239000AF81B8850197A109B1098D839E83AF8371
:1023A000B8878D819E81AF81B8850097A105B10561
:1023B00081F6CF5BDF4F0FB6F894DEBF0FBECDBF07
:1023C000CF91DF910895DF93CF93CDB7DEB72897F4
:1023D0000FB6F894DEBF0FBECDBF88E1898389E1D7
:1023E0008A838AE18B838BE18C831D821E821F820C
:1023F00018869E012B5F3F4FCE010196B90144E044
:102400000E94E60928960FB6F894DEBF0FBECDBF36
:10241000CF91DF910895DF93CF93CDB7DEB7629769
:102420000FB6F894DEBF0FBECDBF8C876D871982C3
:10243000CE0102969F878E87E0E9F0E0F98BE88B6A
:10244000FAE0FA8BE889F9890080888999890196F0
:10245000998B888BEE85FF8500828E859F850196FE
:102460009F878E879A8991509A8BEA89EE2351F73C
:102470008C85823098F58D858A3090F58C85282F53
:1024800030E0C901880F991F880F991F880F991F85
:10249000820F931FFC01E059FF4F8081882371F464
:1024A0008D85282F30E0CE010296FC01E20FF31F4C
:1024B00090818C85692F0E947A1212C08D85282FF9
:1024C00030E0CE010296FC01E20FF31F8081982FCD
:1024D00090958C85692F0E947A1202C081E08983D1
:1024E000898162960FB6F894DEBF0FBECDBFCF9143
:1024F000DF910895DF93CF93CDB7DEB72A970FB65C
:10250000F894DEBF0FBECDBF89876A8719821BC0D2
:102510008981482F50E08A85282F30E08981882FD3
:1025200090E0B90102C0759567958A95E2F7CB01F5
:10253000282F2170CE010296FC01E40FF51F2083A5
:1025400089818F5F89838981873010F38985282F5E
:1025500030E0C901880F991F880F991F880F991FB4
:10256000820F931F88599F4F9E012E5F3F4FB901E5
:1025700047E00E94E6092A960FB6F894DEBF0FBE28
:10258000CDBFCF91DF910895DF93CF9300D0CDB72A
:10259000DEB78A8319828A818230E0F58A81282F0A
:1025A00030E0C901880F991F880F991F880F991F64
:1025B000820F931FFC01E059FF4F80818823A9F40B
:1025C0008A81282F30E0C901880F991F880F991F31
:1025D000880F991F820F931FFC01E159FF4F8081E3
:1025E00060E00E941608898317C08A81282F30E096
:1025F000C901880F991F880F991F880F991F820F93
:10260000931FFC01E159FF4F808161E00E94160891
:10261000898302C081E0898389810F900F90CF91D7
:10262000DF910895DF93CF9300D0CDB7DEB78A83D3
:1026300019828A818230E0F58A81282F30E0C90131
:10264000880F991F880F991F880F991F820F931F5A
:10265000FC01E059FF4F80818823A9F48A81282F4B
:1026600030E0C901880F991F880F991F880F991FA3
:10267000820F931FFC01E159FF4F808161E00E94AE
:102680001608898317C08A81282F30E0C901880F76
:10269000991F880F991F880F991F820F931FFC01A4
:1026A000E159FF4F808160E00E941608898302C0D3
:1026B00081E0898389810F900F90CF91DF910895F8
:1026C000DF93CF93CDB7DEB72C970FB6F894DEBF6C
:1026D0000FBECDBF9B878A876C8719821BC08981FB
:1026E000482F50E08C85282F30E08981882F90E09A
:1026F000B90102C0759567958A95E2F7CB01282F3D
:102700002170CE010296FC01E40FF51F2083898120
:102710008F5F89838981883010F38A859B859E012C
:102720002E5F3F4FB90148E00E94E6092C960FB694
:10273000F894DEBF0FBECDBFCF91DF9108950F9308
:102740001F93DF93CF93CDB7DEB7C455D0400FB6FC
:10275000F894DEBF0FBECDBFFE01EF5AFF4F80E001
:1027600090E0A0EFB1E480839183A283B3838E01D4
:10277000035B1F4FFE01EF5AFF4F60817181828121
:10278000938120E030E04AE755E40E941F02DC011B
:10279000CB01F80180839183A283B383FE01E35BC5
:1027A000FF4F608171818281938120E030E040E8B9
:1027B0005FE30E947903882344F4FE01E55BFF4F49
:1027C00081E090E09183808364C0FE01E35BFF4F72
:1027D000608171818281938120E03FEF4FE757E470
:1027E0000E94190318160CF043C0FE01EF5AFF4F68
:1027F000608171818281938120E030E040E251E488
:102800000E941F02DC01CB018E01055B1F4FBC0142
:10281000CD010E944900DC01CB01F8019183808346
:102820001FC0FE01E75BFF4F80E991E09183808349
:10283000FE01E75BFF4F808191810197F1F7FE0177
:10284000E75BFF4F91838083DE01A55BBF4FFE01F5
:10285000E55BFF4F80819181019711969C938E9348
:10286000FE01E55BFF4F808191810097D1F627C083
:102870008E01055B1F4FFE01E35BFF4F608171819D
:10288000828193810E944900DC01CB01F801918390
:102890008083DE01A95BBF4FFE01E55BFF4F8081B6
:1028A00091818D939C93FE01E95BFF4F8081918123
:1028B0000197F1F7FE01E95BFF4F9183808382E08E
:1028C0000E94C716FE01ED5BFF4F80E090E0A0E79D
:1028D000B1E480839183A283B3838E01015C1F4F97
:1028E000FE01ED5BFF4F608171818281938120E069
:1028F00030E04AE755E40E941F02DC01CB01F801F9
:1029000080839183A283B383FE01FF9660817181EE
:102910008281938120E030E040E85FE30E94790308
:1029200088232CF481E090E09EAF8DAF46C0FE017D
:10293000FF96608171818281938120E03FEF4FE7B4
:1029400057E40E941903181664F5FE01ED5BFF4F72
:10295000608171818281938120E030E040E251E426
:102960000E941F02DC01CB01BC01CD010E94490085
:10297000DC01CB019EAF8DAF0FC080E991E09CAF31
:102980008BAF8BAD9CAD0197F1F79CAF8BAF8DAD4D
:102990009EAD01979EAF8DAF8DAD9EAD009769F74F
:1029A00016C0FE01FF9660817181828193810E9431
:1029B0004900DC01CB019EAF8DAF8DAD9EAD9AAFCE
:1029C00089AF89AD9AAD0197F1F79AAF89AF88E3E6
:1029D0000E94C71680E090E0A0E8BFE38DAB9EABFD
:1029E000AFABB8AF6DA97EA98FA998AD20E030E05C
:1029F0004AE755E40E941F02DC01CB0189AB9AAB88
:102A0000ABABBCAB69A97AA98BA99CA920E030E04B
:102A100040E85FE30E94790388232CF481E090E092
:102A200098AB8FA73FC069A97AA98BA99CA920E080
:102A30003FEF4FE757E40E94190318164CF56DA9B4
:102A40007EA98FA998AD20E030E040E251E40E94D9
:102A50001F02DC01CB01BC01CD010E944900DC0159
:102A6000CB0198AB8FA70FC080E991E09EA78DA7FF
:102A70008DA59EA50197F1F79EA78DA78FA598A973
:102A8000019798AB8FA78FA598A9009769F714C0F5
:102A900069A97AA98BA99CA90E944900DC01CB01F4
:102AA00098AB8FA78FA598A99CA78BA78BA59CA552
:102AB0000197F1F79CA78BA78CE00E94C71680E0D6
:102AC00090E0A0E8BFE38FA398A7A9A7BAA76FA13A
:102AD00078A589A59AA520E030E04AE755E40E9450
:102AE0001F02DC01CB018BA39CA3ADA3BEA36BA1F2
:102AF0007CA18DA19EA120E030E040E85FE30E9430
:102B0000790388232CF481E090E09AA389A33FC045
:102B10006BA17CA18DA19EA120E03FEF4FE757E480
:102B20000E94190318164CF56FA178A589A59AA5DE
:102B300020E030E040E251E40E941F02DC01CB01C2
:102B4000BC01CD010E944900DC01CB019AA389A3FD
:102B50000FC080E991E098A38F8F8F8D98A1019786
:102B6000F1F798A38F8F89A19AA101979AA389A3BE
:102B700089A19AA1009769F714C06BA17CA18DA1CE
:102B80009EA10E944900DC01CB019AA389A389A1DF
:102B90009AA19E8F8D8F8D8D9E8D0197F1F79E8FBF
:102BA0008D8F81E00E94C71680E090E0A0E7B1E43D
:102BB000898F9A8FAB8FBC8F698D7A8D8B8D9C8D11
:102BC00020E030E04AE755E40E941F02DC01CB011F
:102BD0008D8B9E8BAF8BB88F6D897E898F89988DF9
:102BE00020E030E040E85FE30E94790388232CF482
:102BF00081E090E09C8B8B8B3FC06D897E898F89B3
:102C0000988D20E03FEF4FE757E40E941903181614
:102C10004CF5698D7A8D8B8D9C8D20E030E040E203
:102C200051E40E941F02DC01CB01BC01CD010E94D6
:102C30004900DC01CB019C8B8B8B0FC080E991E0BC
:102C40009A8B898B89899A890197F1F79A8B898B5D
:102C50008B899C8901979C8B8B8B8B899C89009796
:102C600069F714C06D897E898F89988D0E9449000B
:102C7000DC01CB019C8B8B8B8B899C89988B8F87FC
:102C80008F8598890197F1F7988B8F8786E00E944E
:102C9000C71680E090E0A0E0B0E48B879C87AD870A
:102CA000BE876B857C858D859E8520E030E04AE778
:102CB00055E40E941F02DC01CB018F839887A9870E
:102CC000BA876F81788589859A8520E030E040E871
:102CD0005FE30E94790388232CF481E090E09E83D7
:102CE0008D833FC06F81788589859A8520E03FEF8D
:102CF0004FE757E40E94190318164CF56B857C8545
:102D00008D859E8520E030E040E251E40E941F0264
:102D1000DC01CB01BC01CD010E944900DC01CB01EB
:102D20009E838D830FC080E991E09C838B838B8190
:102D30009C810197F1F79C838B838D819E81019704
:102D40009E838D838D819E81009769F714C06F816A
:102D5000788589859A850E944900DC01CB019E8394
:102D60008D838D819E819A83898389819A81019740
:102D7000F1F79A838983CC5ADF4F0FB6F894DEBF00
:102D80000FBECDBFCF91DF911F910F910895DF93BB
:102D9000CF93CDB7DEB76D970FB6F894DEBF0FBEF9
:102DA000CDBF8D8F85E060E00E94160884E060E072
:102DB0000E94160883E061E00E9416088AE790E00E
:102DC0006D8D0E94601383E060E00E94160880E031
:102DD00090E0A0EAB0E4898F9A8FAB8FBC8F698DA9
:102DE0007A8D8B8D9C8D20E030E04AE755E40E947F
:102DF0001F02DC01CB018D8B9E8BAF8BB88F6D8951
:102E00007E898F89988D20E030E040E85FE30E9462
:102E1000790388232CF481E090E09C8B8B8B3FC05E
:102E20006D897E898F89988D20E03FEF4FE757E4C9
:102E30000E94190318164CF5698D7A8D8B8D9C8D27
:102E400020E030E040E251E40E941F02DC01CB01AF
:102E5000BC01CD010E944900DC01CB019C8B8B8B16
:102E60000FC080E991E09A8B898B89899A890197B3
:102E7000F1F79A8B898B8B899C8901979C8B8B8B23
:102E80008B899C89009769F714C06D897E898F8929
:102E9000988D0E944900DC01CB019C8B8B8B8B8928
:102EA0009C89988B8F878F8598890197F1F7988BEC
:102EB0008F8783E061E00E94160880E090E0A0E246
:102EC000B1E48B879C87AD87BE876B857C858D85BC
:102ED0009E8520E030E04AE755E40E941F02DC01B5
:102EE000CB018F839887A987BA876F817885898579
:102EF0009A8520E030E040E85FE30E947903882370
:102F00002CF481E090E09E838D833FC06F817885B3
:102F100089859A8520E03FEF4FE757E40E94190327
:102F200018164CF56B857C858D859E8520E030E0FC
:102F300040E251E40E941F02DC01CB01BC01CD0143
:102F40000E944900DC01CB019E838D830FC080E984
:102F500091E09C838B838B819C810197F1F79C830B
:102F60008B838D819E8101979E838D838D819E8130
:102F7000009769F714C06F81788589859A850E94CA
:102F80004900DC01CB019E838D838D819E819A83D4
:102F9000898389819A810197F1F79A8389836D9654
:102FA0000FB6F894DEBF0FBECDBFCF91DF9108956D
:102FB000DF93CF93CDB7DEB76D970FB6F894DEBF32
:102FC0000FBECDBF8D8F85E061E00E94160884E0C2
:102FD00060E00E94160883E061E00E9416088AE71C
:102FE00090E06D8D0E94601383E060E00E941608FF
:102FF00080E090E0A0EAB0E4898F9A8FAB8FBC8F1D
:10300000698D7A8D8B8D9C8D20E030E04AE755E408
:103010000E941F02DC01CB018D8B9E8BAF8BB88F82
:103020006D897E898F89988D20E030E040E85FE3EC
:103030000E94790388232CF481E090E09C8B8B8B99
:103040003FC06D897E898F89988D20E03FEF4FE7E3
:1030500057E40E94190318164CF5698D7A8D8B8DF3
:103060009C8D20E030E040E251E40E941F02DC0130
:10307000CB01BC01CD010E944900DC01CB019C8B3E
:103080008B8B0FC080E991E09A8B898B89899A8913
:103090000197F1F79A8B898B8B899C8901979C8B7F
:1030A0008B8B8B899C89009769F714C06D897E8909
:1030B0008F89988D0E944900DC01CB019C8B8B8B02
:1030C0008B899C89988B8F878F8598890197F1F7D9
:1030D000988B8F8783E061E00E94160880E090E083
:1030E000A0E2B1E48B879C87AD87BE876B857C852A
:1030F0008D859E8520E030E04AE755E40E941F025E
:10310000DC01CB018F839887A987BA876F81788587
:1031100089859A8520E030E040E85FE30E947903EA
:1031200088232CF481E090E09E838D833FC06F81E3
:10313000788589859A8520E03FEF4FE757E40E9424
:10314000190318164CF56B857C858D859E8520E0CE
:1031500030E040E251E40E941F02DC01CB01BC01DF
:10316000CD010E944900DC01CB019E838D830FC0FD
:1031700080E991E09C838B838B819C810197F1F79F
:103180009C838B838D819E8101979E838D838D810E
:103190009E81009769F714C06F81788589859A852B
:1031A0000E944900DC01CB019E838D838D819E812D
:1031B0009A83898389819A810197F1F79A83898318
:1031C0006D960FB6F894DEBF0FBECDBFCF91DF91E5
:1031D0000895DF93CF93CDB7DEB762970FB6F8941B
:1031E000DEBF0FBECDBF998B888B6A8B1F861F8673
:1031F00080C08F85282F30E088899989FC01E20FF3
:10320000F31F80810E94D81780E090E0A0E0B0E436
:103210008B879C87AD87BE876B857C858D859E85DA
:1032200020E030E04AE755E40E941F02DC01CB01B8
:103230008F839887A987BA876F81788589859A85D2
:1032400020E030E040E85FE30E94790388232CF41B
:1032500081E090E09E838D833FC06F817885898572
:103260009A8520E03FEF4FE757E40E9419031816B4
:103270004CF56B857C858D859E8520E030E040E2B5
:1032800051E40E941F02DC01CB01BC01CD010E9470
:103290004900DC01CB019E838D830FC080E991E062
:1032A0009C838B838B819C810197F1F79C838B831B
:1032B0008D819E8101979E838D838D819E81009754
:1032C00069F714C06F81788589859A850E944900C5
:1032D000DC01CB019E838D838D819E819A838983BE
:1032E00089819A810197F1F79A8389838F858F5F0E
:1032F0008F879F858A89981708F47BCF62960FB6CF
:10330000F894DEBF0FBECDBFCF91DF910895DF935C
:10331000CF9300D000D0CDB7DEB789836A838A818E
:103320008823E1F08A818131C8F48981282F30E037
:103330003C832B838B819C818130910531F02B81E3
:103340003C812230310531F009C08A8181580E94C8
:10335000C71604C08A8181540E94C7160F900F902F
:103360000F900F90CF91DF910895DF93CF93CDB75A
:10337000DEB762970FB6F894DEBF0FBECDBF898B64
:103380006A8B80E40E94C716188A0CC08889882F2F
:1033900090E0FC01E656FF4F80810E94D817888993
:1033A0008F5F888B8889803488F380E80E94C716F5
:1033B00089896A890E9487191F8678C08F850E9433
:1033C000D81780E090E0A0EAB0E48B879C87AD87B7
:1033D000BE876B857C858D859E8520E030E04AE741
:1033E00055E40E941F02DC01CB018F839887A987D7
:1033F000BA876F81788589859A8520E030E040E83A
:103400005FE30E94790388232CF481E090E09E839F
:103410008D833FC06F81788589859A8520E03FEF55
:103420004FE757E40E94190318164CF56B857C850D
:103430008D859E8520E030E040E251E40E941F022D
:10344000DC01CB01BC01CD010E944900DC01CB01B4
:103450009E838D830FC080E991E09C838B838B8159
:103460009C810197F1F79C838B838D819E810197CD
:103470009E838D838D819E81009769F714C06F8133
:10348000788589859A850E944900DC01CB019E835D
:103490008D838D819E819A83898389819A81019709
:1034A000F1F79A8389838F858F5F8F878F85883027
:1034B00008F484CF62960FB6F894DEBF0FBECDBF7E
:1034C000CF91DF910895DF93CF93CDB7DEB76397A8
:1034D0000FB6F894DEBF0FBECDBF8B8B86E160E0E8
:1034E0000E94160886E160E00E94160884E08A8B3C
:1034F0001BC08A89882F90E0AC01445050408B89D2
:10350000282F30E08A89882F90E0B90102C0759594
:1035100067958A95E2F7CB018170FA01E851FF4F78
:1035200080838A898F5F8A8B8A89883010F384E848
:1035300090E028EE30E0B90144E00E94E60985E120
:1035400061E00E9416081E861F86188A198A28C004
:1035500080ED97E0A0E0B0E08A879B87AC87BD87CD
:103560000CC000008A859B85AC85BD850197A109AB
:10357000B1098A879B87AC87BD878A859B85AC8587
:10358000BD850097A105B10561F78E859F85A88946
:10359000B9890197A109B1098E879F87A88BB98B3B
:1035A0008E859F85A889B9890097A105B10581F607
:1035B00085E160E00E941608198618C08985482FA9
:1035C00050E08B89282F30E08985882F90E0B90161
:1035D00002C0759567958A95E2F7CB018170FA0173
:1035E000E851FF4F808389858F5F89878985843083
:1035F00028F384E890E028EE30E0B90144E00E942E
:10360000E60985E161E00E9416081D821E821F8284
:10361000188628C080ED97E0A0E0B0E089839A8307
:10362000AB83BC830CC0000089819A81AB81BC81D3
:103630000197A109B10989839A83AB83BC838981EE
:103640009A81AB81BC810097A105B10561F78D819D
:103650009E81AF81B8850197A109B1098D839E83B1
:10366000AF83B8878D819E81AF81B8850097A10512
:10367000B10581F685E160E00E94160863960FB6F9
:10368000F894DEBF0FBECDBFCF91DF910895DF93D9
:10369000CF93CDB7DEB763970FB6F894DEBF0FBEFA
:1036A000CDBF8B8B86E160E00E94160887E161E068
:1036B0000E94160884E08A8B1BC08A89882F90E0BC
:1036C000AC01445050408B89282F30E08A89882FE4
:1036D00090E0B90102C0759567958A95E2F7CB0134
:1036E0008170FA01E851FF4F80838A898F5F8A8B4E
:1036F0008A89883010F384E890E028EE30E0B90140
:1037000044E00E94E60985E161E00E9416081E86F9
:103710001F86188A198A28C080ED97E0A0E0B0E0E3
:103720008A879B87AC87BD870CC000008A859B85F4
:10373000AC85BD850197A109B1098A879B87AC87B4
:10374000BD878A859B85AC85BD850097A105B105A0
:1037500061F78E859F85A889B9890197A109B1096B
:103760008E879F87A88BB98B8E859F85A889B989FD
:103770000097A105B10581F685E160E00E94160879
:10378000198618C08985482F50E08B89282F30E092
:103790008985882F90E0B90102C0759567958A9553
:1037A000E2F7CB018170FA01E851FF4F80838985F0
:1037B0008F5F89878985843028F384E890E028EE3C
:1037C00030E0B90144E00E94E60985E161E00E9431
:1037D00016081D821E821F82188628C080ED97E081
:1037E000A0E0B0E089839A83AB83BC830CC0000067
:1037F00089819A81AB81BC810197A109B109898333
:103800009A83AB83BC8389819A81AB81BC81009709
:10381000A105B10561F78D819E81AF81B8850197C2
:10382000A109B1098D839E83AF83B8878D819E8165
:10383000AF81B8850097A105B10581F685E160E00B
:103840000E94160863960FB6F894DEBF0FBECDBF78
:10385000CF91DF910895DF93CF93CDB7DEB7A897CF
:103860000FB6F894DEBF0FBECDBF86E090E0A0E0BB
:10387000B0E08DA39EA3AFA3B8A728C080ED97E0CA
:10388000A0E0B0E089A39AA3ABA3BCA30CC0000046
:1038900089A19AA1ABA1BCA10197A109B10989A3F2
:1038A0009AA3ABA3BCA389A19AA1ABA1BCA1009789
:1038B000A105B10561F78DA19EA1AFA1B8A50197A2
:1038C000A109B1098DA39EA3AFA3B8A78DA19EA105
:1038D000AFA1B8A50097A105B10581F6809183003D
:1038E0008B7F809383008091830088608093830026
:1038F00082E20E94631A809183000E94631A1D8EE7
:103900001E8E1F8E18A228C080ED97E0A0E0B0E0C8
:10391000898F9A8FAB8FBC8F0CC00000898D9A8DD8
:10392000AB8DBC8D0197A109B109898F9A8FAB8F9F
:10393000BC8F898D9A8DAB8DBC8D0097A105B1058B
:1039400061F78D8D9E8DAF8DB8A10197A109B10949
:103950008D8F9E8FAF8FB8A38D8D9E8DAF8DB8A1AB
:103960000097A105B10581F6809182000E94631A3B
:103970001D8A1E8A1F8A188E28C080ED97E0A0E05D
:10398000B0E0898B9A8BAB8BBC8B0CC00000898913
:103990009A89AB89BC890197A109B109898B9A8B56
:1039A000AB8BBC8B89899A89AB89BC890097A105AF
:1039B000B10561F78D899E89AF89B88D0197A109FD
:1039C000B1098D8B9E8BAF8BB88F8D899E89AF8906
:1039D000B88D0097A105B10581F681E00E94631AB8
:1039E0001D861E861F86188A28C080ED97E0A0E0FD
:1039F000B0E089879A87AB87BC870CC000008985B7
:103A00009A85AB85BC850197A109B10989879A87F9
:103A1000AB87BC8789859A85AB85BC850097A10556
:103A2000B10561F78D859E85AF85B8890197A1099C
:103A3000B1098D879E87AF87B88B8D859E85AF85B1
:103A4000B8890097A105B10581F686E00E94631A46
:103A50001D821E821F82188628C080ED97E0A0E09C
:103A6000B0E089839A83AB83BC830CC0000089815A
:103A70009A81AB81BC810197A109B10989839A839D
:103A8000AB83BC8389819A81AB81BC810097A105FE
:103A9000B10561F78D819E81AF81B8850197A1093C
:103AA000B1098D839E83AF83B8878D819E81AF815D
:103AB000B8850097A105B10581F680E80E94631AD8
:103AC000A8960FB6F894DEBF0FBECDBFCF91DF91A1
:103AD0000895DF93CF93CDB7DEB781E00E94631ADC
:103AE000CF91DF910895DF93CF93CDB7DEB782E01A
:103AF0000E94631ACF91DF910895DF93CF9300D096
:103B00000F92CDB7DEB789838981282F30E03B83C0
:103B10002A838A819B818130910531F02A813B8102
:103B20002230310529F007C080E80E94631A03C0E3
:103B300080EC0E94631A0F900F900F90CF91DF914D
:103B40000895DF93CF9300D000D0CDB7DEB789833F
:103B50006A838981282F30E03C832B838B819C8171
:103B60008130910531F02B813C812230310531F0DB
:103B700009C08A8181580E94631A04C08A818154D5
:103B80000E94631A0F900F900F900F90CF91DF91CA
:103B90000895DF93CF930F92CDB7DEB789838981E4
:103BA0008A3028F48981805D0E94471B03C0898187
:103BB0000E94471B0F90CF91DF910895DF93CF9321
:103BC000CDB7DEB78CE10E94631ACF91DF910895E3
:103BD000DF93CF93CDB7DEB788E10E94631ACF9110
:103BE000DF910895DF93CF9300D0CDB7DEB78A83FE
:103BF000198206C084E10E94631A89818F5F8983DC
:103C000099818A819817B0F30F900F90CF91DF912F
:103C10000895DF93CF9300D0CDB7DEB78A831982A2
:103C200006C080E10E94631A89818F5F8983998130
:103C30008A819817B0F30F900F90CF91DF9108957C
:103C4000DF93CF930F92CDB7DEB789838981882325
:103C500031F4809182008D7F8093820005C0809135
:103C60008200826080938200809182000E94631AA9
:103C70000F90CF91DF910895DF93CF930F92CDB73F
:103C8000DEB789838981882331F4809182008E7F19
:103C90008093820005C080918200816080938200C1
:103CA000809182000E94631A0F90CF91DF91089556
:103CB000DF93CF930F92CDB7DEB7898389818823B5
:103CC00031F4809182008B7F8093820005C08091C7
:103CD0008200846080938200809182000E94631A37
:103CE0000F90CF91DF910895DF93CF93CDB7DEB7DB
:103CF0002C970FB6F894DEBF0FBECDBF9B878A8787
:103D00006C8719821BC08981482F50E08C85282F31
:103D100030E08981882F90E0B90102C075956795E0
:103D20008A95E2F7CB01282F2170CE010296FC0183
:103D3000E40FF51F208389818F5F89838981883013
:103D400010F38A859B859E012E5F3F4FB90148E0A5
:103D50000E94E6092C960FB6F894DEBF0FBECDBFC9
:103D6000CF91DF910895DF93CF930F92CDB7DEB758
:103D70000E94CA0788E161E00E94D60989E160E0FB
:103D80000E94160888E19E012F5F3F4FB9010E94F3
:103D90004C098981882329F489E161E00E94160891
:103DA000F1CF8981813071F789E160E00E941608C6
:103DB000E9CF991B79E004C0991F961708F0961B6C
:103DC000881F7A95C9F7809508952F923F924F9258
:103DD0005F926F927F928F929F92AF92BF92CF929B
:103DE000DF92EF92FF920F931F93CF93DF93CDB7A4
:103DF000DEB7CA1BDB0B0FB6F894DEBF0FBECDBF1C
:103E000009942A88398848885F846E847D848C84EC
:103E10009B84AA84B984C884DF80EE80FD800C81F5
:103E20001B81AA81B981CE0FD11D0FB6F894DEBFD8
:0C3E30000FBECDBFED010895F894FFCF48
:103E3C00000000000000000008090A0B0C0D0E0F1A
:103E4C000010111213141516170018191A1B1C1D2B
:103E5C001E1F0F281C1D1E1F18191A1B1C1D1E1F90
:103E6C003F065B4F666D7D077F6F020017151F00C5
:103E7C0000000000000407040C18040A00151F00C1
:103E8C000000060E04040404000000000E0A0E02DA
:103E9C0004080000000007040C180000040A1B0AA8
:0A3EAC000400000007041F000000DE
:00000001FF
