:100000000C942A000C943F000C943F000C943F0089
:100010000C943F000C943F000C943F000C943F0064
:100020000C943F000C943F000C943F000C943F0054
:100030000C943F000C943F000C943F000C943F0044
:100040000C943F000C943F000C943F000C943F0034
:100050000C943F0011241FBECFE5D8E0DEBFCDBF1A
:1000600010E0A0E6B0E0E2E2F8E002C005900D92F8
:10007000A836B107D9F70E945C020C940F040C94C7
:100080000000DF93CF93CDB7DEB7EAE3F0E08FEF68
:100090008083E7E3F0E08FEF8083E4E3F0E0108219
:1000A000E1E3F0E01082CF91DF910895DF93CF93E9
:1000B000CDB7DEB72B970FB6F894DEBF0FBECDBF1E
:1000C0008A836B8319828A818830D8F58B81282FA7
:1000D00030E03B872A878A859B85009731F02A8507
:1000E0003B8521303105B1F029C0ABE3B0E0EBE353
:1000F000F0E08081482F8A81282F30E081E090E075
:10010000022E02C0880F991F0A94E2F7809584237B
:100110008C93F4C0ABE3B0E0EBE3F0E08081482FD8
:100120008A81282F30E081E090E0022E02C0880F03
:10013000991F0A94E2F7842B8C93E0C081E08983B5
:10014000DDC08A81883008F445C08A81803108F09A
:1001500041C08B81282F30E0398728878885998591
:10016000009731F02885398521303105C9F02FC03D
:10017000A8E3B0E0E8E3F0E08081482F8A81882F8F
:1001800090E09C012770307081E090E0022E02C068
:10019000880F991F0A94E2F7809584238C93AEC050
:1001A000A8E3B0E0E8E3F0E08081482F8A81882F5F
:1001B00090E09C012770307081E090E0022E02C038
:1001C000880F991F0A94E2F7842B8C9397C081E0E3
:1001D000898394C08A81803108F445C08A8188313E
:1001E00008F041C08B81282F30E03F832E838E8121
:1001F0009F81009731F02E813F8121303105C9F078
:100200002FC0A5E3B0E0E5E3F0E08081482F8A81CC
:10021000882F90E09C012770307081E090E0022EE2
:1002200002C0880F991F0A94E2F7809584238C936B
:1002300065C0A5E3B0E0E5E3F0E08081482F8A8166
:10024000882F90E09C012770307081E090E0022EB2
:1002500002C0880F991F0A94E2F7842B8C934EC03A
:1002600081E089834BC08A81883108F445C08A8146
:10027000803208F041C08B81282F30E03D832C83F1
:100280008C819D81009731F02C813D812130310599
:10029000C9F02FC0A2E3B0E0E2E3F0E08081482F94
:1002A0008A81882F90E09C012770307081E090E077
:1002B000022E02C0880F991F0A94E2F780958423CA
:1002C0008C931CC0A2E3B0E0E2E3F0E08081482F11
:1002D0008A81882F90E09C012770307081E090E047
:1002E000022E02C0880F991F0A94E2F7842B8C9388
:1002F00005C081E0898302C081E0898389812B96D2
:100300000FB6F894DEBF0FBECDBFCF91DF91089539
:10031000DF93CF9300D000D0CDB7DEB78A837C8344
:100320006B8319828B819C81009709F46EC08A814E
:100330008830A0F4E9E3F0E08081282F30E08A8162
:10034000882F90E0A90102C0559547958A95E2F75C
:10035000CA018170EB81FC81808359C08A81883019
:10036000C8F08A818031B0F4E6E3F0E08081282F84
:1003700030E08A81882F90E087709070A90102C0D8
:10038000559547958A95E2F7CA018170EB81FC810A
:1003900080833DC08A818031C8F08A818831B0F481
:1003A000E3E3F0E08081282F30E08A81882F90E01D
:1003B00087709070A90102C0559547958A95E2F71C
:1003C000CA018170EB81FC81808321C08A818831E0
:1003D000C8F08A818032B0F4E0E3F0E08081282F19
:1003E00030E08A81882F90E087709070A90102C068
:1003F000559547958A95E2F7CA018170EB81FC819A
:10040000808305C081E0898302C082E0898389817D
:100410000F900F900F900F90CF91DF910895DF9381
:10042000CF9300D0CDB7DEB789836A8389816A8193
:100430000E9456000F900F90CF91DF910895DF93A7
:10044000CF93CDB7DEB727970FB6F894DEBF0FBEB8
:10045000CDBF9C838B837E836D834F831A821982E9
:100460001DC08981282F30E08B819C81FC01E20F27
:10047000F31F40818981282F30E08D819E81FC010E
:10048000E20FF31F9081842F692F0E9456008A8308
:100490008A81882339F489818F5F898399818F814B
:1004A0009817F8F28A8127960FB6F894DEBF0FBE30
:1004B000CDBFCF91DF910895DF93CF93CDB7DEB756
:1004C000ED970FB6F894DEBF0FBECDBF0E9441007E
:1004D000CE0189969AAF89AFA0E6B0E0BCAFABAFD2
:1004E000B8E0BDAFEBADFCAD00808BAD9CAD01962F
:1004F0009CAF8BAFA9ADBAAD0C92E9ADFAAD319618
:10050000FAAFE9AFFDADF150FDAF8DAD882351F7E6
:1005100088E0FE01F196DF01982F1D929A95E9F788
:10052000CE0189969E012F5C3F4FB90148E00E94A1
:100530001F0288E060E00E94560089E060E00E94AF
:10054000560084E061E00E94560085E061E00E9470
:10055000560089E090E0A0E0B0E08DA39EA3AFA399
:10056000B8A728C080ED97E0A0E0B0E089A39AA3E7
:10057000ABA3BCA30CC0000089A19AA1ABA1BCA1F4
:100580000197A109B10989A39AA3ABA3BCA389A12F
:100590009AA1ABA1BCA10097A105B10561F78DA1FE
:1005A0009EA1AFA1B8A50197A109B1098DA39EA3F2
:1005B000AFA3B8A78DA19EA1AFA1B8A50097A10533
:1005C000B10581F684E060E00E94560085E060E0BD
:1005D0000E94560083E061E00E94560086E061E0E0
:1005E0000E94560089E090E0A0E0B0E08D8F9E8FE1
:1005F000AF8FB8A328C080ED97E0A0E0B0E0898F6E
:100600009A8FAB8FBC8F0CC00000898D9A8DAB8DFB
:10061000BC8D0197A109B109898F9A8FAB8FBC8FCF
:10062000898D9A8DAB8DBC8D0097A105B10561F7C1
:100630008D8D9E8DAF8DB8A10197A109B1098D8FC8
:100640009E8FAF8FB8A38D8D9E8DAF8DB8A1009773
:10065000A105B10581F683E060E00E94560086E0C6
:1006600060E00E94560082E061E00E94560087E050
:1006700061E00E94560089E090E0A0E0B0E08D8B40
:100680009E8BAF8BB88F28C080ED97E0A0E0B0E0E4
:10069000898B9A8BAB8BBC8B0CC0000089899A89A3
:1006A000AB89BC890197A109B109898B9A8BAB8B66
:1006B000BC8B89899A89AB89BC890097A105B10552
:1006C00061F78D899E89AF89B88D0197A109B1091C
:1006D0008D8B9E8BAF8BB88F8D899E89AF89B88D9E
:1006E0000097A105B10581F682E060E00E94560006
:1006F00087E060E00E94560081E061E00E945600C1
:1007000088E061E00E94560089E090E0A0E0B0E05F
:100710008D879E87AF87B88B28C080ED97E0A0E0DB
:10072000B0E089879A87AB87BC870CC000008985B9
:100730009A85AB85BC850197A109B10989879A87FC
:10074000AB87BC8789859A85AB85BC850097A10559
:10075000B10561F78D859E85AF85B8890197A1099F
:10076000B1098D879E87AF87B88B8D859E85AF85B4
:10077000B8890097A105B10581F681E060E00E948B
:10078000560088E060E00E94560080E061E00E9430
:10079000560089E061E00E94560089E090E0A0E008
:1007A000B0E08D839E83AF83B88728C080ED97E04B
:1007B000A0E0B0E089839A83AB83BC830CC00000C7
:1007C00089819A81AB81BC810197A109B109898393
:1007D0009A83AB83BC8389819A81AB81BC8100976A
:1007E000A105B10561F78D819E81AF81B885019723
:1007F000A109B1098D839E83AF83B8878D819E81C6
:10080000AF81B8850097A105B10581F680E060E071
:100810000E94560089E060E00E94560092CEF89453
:02082000FFCF08
:080822000001020304050607B2
:00000001FF
